:0200000280007C
:1000000070490720154808001148080011480800E9
:1000100011480800114808001148080000000000BD
:10002000000000000000000000000000114808006F
:10003000114808000000000011480800114808009D
:10004000114808001148080011480800114808002C
:10005000114808001148080011480800114808001C
:10006000114808001148080000000000A5410800E0
:10007000B5410800C5410800D54108000000000056
:10008000000000001D2208002D2208001148080071
:1000900011480800114808001148080011480800DC
:1000A000114808000000000011480800114808002D
:1000B00009140800114808001148080011480800F8
:1000C00011480800114808001148080011480800AC
:1000D000114808001148080011480800114808009C
:1000E00099580800114808001148080011480800F4
:1000F0001148080010B5054C237833B9044B13B1EF
:100100000448AFF300800123237010BD7816072048
:1001100000000000D4DE080008B5034B1BB1034902
:100120000348AFF3008008BD000000007C160720E4
:10013000D4DE080070B54CF2503269258AB01C49F3
:10014000CDE903251B4B1620029198471A4B1B48FB
:1001500002A9984700201A4C8DF8070023780BB1AC
:100160000AB070BD03F0FF068022012305962370BC
:100170008DF81420069308930DF10702114B0F48D8
:1001800005A9099607928DF824509847034618B19F
:10019000304626700AB070BD9DF80700237000F04D
:1001A0000F00A0F10100B0FA80F040090AB070BD64
:1001B00000BD0105F14308004949080000C008409E
:1001C00094160720A149080070B5144D88B02B780B
:1001D0008DF8071013B1002008B070BD012469220A
:1001E00003F0FF0660F07F000DF10703039605930F
:1001F0008DF80C000A4B0B4803A907962C70049449
:1002000006948DF81C209847034618B920462B7099
:1002100008B070BD30462E7008B070BD941607202F
:10022000794A080000C0084070B5124D86B02B789E
:1002300013B1002006B070BD0124692203F0FF064F
:1002400060F07F000C4B0391019601A98DF804002A
:100250000A4805962C70029404948DF8142098474F
:10026000034618B920462B7006B070BD30462E707C
:1002700006B070BD94160720A149080000C00840D0
:100280000023436003608360704700BF10B40468BC
:100290000134C82C28BF002400E042B14368A342C7
:1002A000FBD0036803441973046010BC7047836873
:1002B00010BC01338360704743680168024699426D
:1002C0001844007B05D00133C82B28BF002353609E
:1002D0007047FF20704700BF03684068C01A18BF0E
:1002E0000120704703684068181A48BFC83070473B
:1002F00010B54FF040510B4C3820A0474FF0405103
:100300003420A0474FF020513420A0474FF06051D7
:100310003520A0473520044B9847BDE810403820D1
:10032000024B184755460800F945080015460800D5
:100330003520014B184700BF154608003520014BFA
:10034000184700BFF94508002DE9F84308260024A6
:100350000546DFF85490154FDFF8548008E0B847A1
:100360003820C0476D006400013EEDB2E4B20ED00B
:100370003420C84703463820002B18BF44F001043E
:10038000B8472B064FF03400E9D5C047E8E73420E2
:10039000C8470346002B18BF44F00104382064B25C
:1003A000B847E0B2BDE8F883DD450800154608000F
:1003B000F945080010B50021054C3820A047002160
:1003C0003420A0472346BDE81040002135201847BF
:1003D0005546080010B5054A054B10689847BDE81A
:1003E0001040044A044B1068184700BFC0010720A2
:1003F000F9450800CC01072015460800014A024BC8
:1004000010681847C001072015460800014A024B32
:1004100010681847C0010720F94508002DE9F84F7A
:10042000082600240546DFF864B0194FDFF8648021
:10043000DFF864A0DFF8649008E0C0473868C84778
:100440006D006400013EEDB2E4B210D0144BDBF855
:100450000000984703463868002B18BF44F0010499
:10046000C0472B06DAF80000E7D5C847E6E7DBF817
:1004700000000B4B98470346002B18BF44F00104C3
:10048000386864B2C047E0B2BDE8F88FC401072005
:10049000CC01072015460800C8010720F9450800CF
:1004A000DD450800704700BF70B505464FF020518C
:1004B0003120984CA047002D00F087804FF08051EC
:1004C0003620A0474FF000610A20A0474FF000619E
:1004D0000B20A0474FF000610C20A0474FF00061B7
:1004E0000D20A0478C494220A0478B494320A047BC
:1004F00089494420A04788494520A047864946208D
:10050000A04785494720A04783494820A047824902
:100510004920A04781491D20A0477F495220A0477C
:100520007E490620A0477C495520A0477A4956209D
:10053000A04779495720A04777495820A0477649D6
:100540005920A04774495A20A04773495B20A0470F
:1005500071495C20A04770495D20A0476E495E202C
:10056000A0476D496020A0476B496120A0476A49B8
:100570006220A04768496320A04767496420A047DC
:1005800065496520A04764496620A0476249672005
:10059000A04761496820A0475F496920A0474FF004
:1005A00060513320A04733205D4B98474FF04051B6
:1005B0004D20A0474FF060513320A0472346BDE8AF
:1005C00070404FF02051312018474FF02051362015
:1005D000A0474FF020510A20A0474FF020510B2098
:1005E000A0474FF020510C20A0474FF020510D2084
:1005F000A0474FF020514220A0474FF02051432008
:10060000A0474FF020514420A0474FF020514520F3
:10061000A0474FF020514620A0474FF020514720DF
:10062000A0474FF020514820A0474FF020514920CB
:10063000A0474FF020511D20A0474FF020515220DD
:10064000A0474FF020510620A0474FF020515520E1
:10065000A0474FF020515620A0474FF0205157207F
:10066000A0474FF020515820A0474FF0205159206B
:10067000A0474FF020515A20A0474FF020515B2057
:10068000A0474FF020515C20A0474FF020515D2043
:10069000A0474FF020515E20A0474FF0205160202E
:1006A000A0474FF020516120A0474FF02051622019
:1006B000A0474FF020516320A0474FF02051642005
:1006C000A0474FF020516520A0474FF020516620F1
:1006D000A0474FF020516720A0474FF020516820DD
:1006E000A0474FF020516920A0474FF020514D20E6
:1006F000A0474FF020513320A0474FF02051352024
:10070000A0474FF020513420A0474FF0205138200F
:10071000A04753E7554608000100000801000010FB
:10072000F9450800F0B5284E8FB033680022ADF8C7
:1007300010301B0C8DF8123001AB06930A230124F4
:100740002821224D07932B78CDE900428DF8201007
:1007500002920594ADF80C200BB10FB0F0BD2C70D7
:100760001B481C4C04A903F0FF07A04700B10097E9
:1007700073680127190C0422ADF8243028238DF862
:100780002610134809A9CDF82CD00A970C928DF8A1
:100790003430A047A8B9009B23F47F7323F00303F0
:1007A00043F0640300930A480B4B09A9984708B12A
:1007B0000023009309A90648A04700232B700FB01F
:1007C000F0BD6423EEE700BF40DA0800941607206E
:1007D00000C00840A1490800794A08002DE9F04707
:1007E0002E4D92B02B7813B112B0BDE8F0870124E2
:1007F0000D222827DFF8A89003F0FF06D9F808306B
:100800002848ADF80C301B0C8DF80E30DFF898A09E
:100810000DF1060303A905932C708DF806200494AE
:1008200006948DF81C70D0478046002832D12623CC
:100830008DF80730D9F80C301A48ADF820301B0C71
:100840008DF8223008A90DF1070309940B948DF857
:10085000307002940A93D0470646B0B902AA0F92AC
:100860000422D9F804300DA9ADF834301B0C8DF8F2
:1008700036300C480D4B0E948DF84470109298470A
:1008800005202E7012B0BDE8F0874FF0FF3085F8DC
:100890000080A9E74FF0FF302E70A5E794160720DF
:1008A00040DA080000C00840794A0800A149080061
:1008B0002DE9F04F00254FF000724FF00109594C1F
:1008C00087B0594B019525705C684FF060510194D9
:1008D000019C564F019439205A65B8471021544B5A
:1008E00002A89847DFF84C810B20C0470C20C04776
:1008F0000D20C0470E20C0474F4B98474F4B83F801
:100900000090BFF35F8F62B64D4E4E48B0474FF038
:1009100020513A20B8474FF060510320B8474FF0BC
:1009200040514E20B8474E20474B9847474BDFF881
:1009300020A183F805901D705D709D70DD701D71A4
:10094000444B9847444B9847444B98474E20444B60
:100950009847444B98473B48B047DFF80C91434BCE
:100960009847434B98474D46424E02AC0DF1180B49
:1009700054F8042B28463146D0475C4505F108055C
:10098000F6D14FF0000A092089F820A0C0470120C5
:10099000394B98475146394A39483A4B984751465E
:1009A000394A3748394B98474FF00C125146344872
:1009B000374B9847514603223148364B984704221B
:1009C000354B50461A64354B9847354B984728208D
:1009D000C0474FF080513920B847324B9847324BCF
:1009E0004B209847314B9847314B9847314B9847AC
:1009F000314B98474FF060513B20B8472F4B9847F9
:100A00002F4B98472F4B98472F4B98472F4B984782
:100A10002F4B304E304D314C9847B047A847A04738
:100A2000FBE700BF94160720001A0E405546080049
:100A3000853D0800F1430800350E0800A00C072092
:100A4000B5010720F0490200F945080020340720CD
:100A5000E16E08003D420800F16308003D15080002
:100A60001546080035010800D001072025070800B9
:100A7000DD07080038DA0800A904080002030203B1
:100A800000000E4091400800060206069D40080046
:100A9000A9400800B540080000060E403144080097
:100AA000DD4308009D120800F1120800F10E080055
:100AB0009D0F08008513080045170800551208000F
:100AC000DD20080091250800913C0800290D080050
:100AD000C93308007928080041130800ED330800E5
:100AE0000D4AD3889189994214D3023BDBB2022B81
:100AF00010D810B49468094822462478014604743A
:100B0000501C034412F8010F9A4201F8010BF9D16D
:100B100010BC7047704700BFA4230720F4010720D2
:100B20000D4A5378413B032B13D8DFE803F00E0A3C
:100B300006020A4B012013617047094B0120136123
:100B40007047084B012013617047074B0120136168
:100B500070470020704700BFA42307206D0B0800DA
:100B6000E10A0800CD0C08003D21080038B50E4B05
:100B7000DA889989914207D30C4C217801F0FF055E
:100B800019B101220A4B1A7038BD0A499B68CA6024
:100B900001228B600848094B22709847044BC0B271
:100BA0001870257038BD00BFA423072094160720B5
:100BB000B51D0720F401072000C00840794A08004D
:100BC0002DE9F047374C6378413B032B67D8DFE8CA
:100BD00003F041341B02DFF8D080344FE388344EF9
:100BE00098F80020C7E9026302F0FF09002A35D017
:100BF00001223049701E134406F8012C0A70A060CF
:100C0000A3811046BDE8F087284F2A4B2A4E1A7858
:100C10007D683B7C32707370002D3ED00023581CE1
:100C2000F95CF218C3B2AB429170F8D30235ADB2A1
:100C30000120A660A581BDE8F0871B4B1B7803F05F
:100C4000FF06EBB101231C4A18461370A260A38172
:100C5000BDE8F087194BBDE8F04718470125184B50
:100C60003946184888F800509847FB6806F8019CF8
:100C70002B44013E284688F80090A660A381DAE75D
:100C80000B4D114B2946A078984702236A1E01207C
:100C900005F8016CA260A381CDE70225C8E700201A
:100CA000C9E700BFA423072094160720F4010720FA
:100CB000711B0720B51D0720701B0720192608008F
:100CC000A149080000C00840490E080038B50B4C87
:100CD00023781BB101220A4B1A7038BD012103F0A1
:100CE000FF05084B21709A68987892F90010064B1E
:100CF0009847034B25701D7038BD00BF9416072020
:100D0000B51D0720A4230720990E0800704700BFD7
:100D1000704700BFC0F3080000B170470320014BCB
:100D2000184700BF3146080010B5044B04489847E7
:100D3000BDE810400348044B184700BF511E08008F
:100D4000C10B0800210B0800791E080010B54FF4F4
:100D5000C8124FF020510A480A4CA047B0F5C81FEE
:100D600005D0094A13780133DBB2137010BD4FF47C
:100D700000624FF020510548A0470028F1D010BD77
:100D800000120E40914508009616072000100E40F4
:100D900038B54FF400024FF020510D480D4B9847E5
:100DA00058B904460C4D3B200C4B2C7098470C4B0B
:100DB0002046984701232B7038BD3B20094B9847AC
:100DC000074B012098470022034B1A7038BD00BF23
:100DD00000100E40914508009516072015460800A2
:100DE000A9040800F94508000B2800D07047B1F5A8
:100DF000803FFBD10A4670B54FF020510848094B9F
:100E00009847044600B170BD0126074D3B20074BB3
:100E10002E7098472046064B98472E7070BD00BF35
:100E2000000E0E4091450800951607201546080053
:100E3000A904080008B54FF04051024B0420984720
:100E4000002008BD5546080030B54FF0000C0123C6
:100E50004FF0180E0D4C87B022788DF805C08DF834
:100E600006C003918DF814E08DF8040002930493FA
:100E70004AB902F0FF050648064A01A923709047C7
:100E8000257007B030BD4FF0FF30FAE79416072009
:100E900000C00840A149080030B54FF0000C012304
:100EA0004FF0180E89B00F4C0DF107020592227811
:100EB0008DF80DC08DF80EC08DF81CE08DF8071070
:100EC0008DF80C00049306934AB902F0FF0506481A
:100ED000064A03A923709047257009B030BD4FF032
:100EE000FF30FAE79416072000C00840794A08004E
:100EF0002DE9F0430D2083B01F4D204CDFF880908A
:100F0000A047204F0C20A047DFF87C804A464FF4D2
:100F1000C8112846C0471D4C50234FF4C8121C4E20
:100F20000D2128460097B04728464FF4C811194DA7
:100F3000A8474A464FF400612046C04750234FF46B
:100F400000620C2120460097B0474FF40061204614
:100F5000A8474FF40052104BC3F88020BFF34F8FC7
:100F6000BFF36F8F90210020C3F8802183F80D1309
:100F70001A6003B0BDE8F08300120E40F143080090
:100F80000A0000284D0D08004D47080000100E40D3
:100F90001D410800D145080000E100E02DE9F043C3
:100FA000072001260A2100224FF0180889B03D4F82
:100FB0000DF10B0305933B7804968DF80B00ADF80B
:100FC0000C108DF80E2006968DF81C80002B66D133
:100FD0003548DFF8D89003A903F0FF053E70C847F5
:100FE0003D70044618B1204609B0BDE8F0830DF10C
:100FF0000B03CDE904638DF81C800D234FF05008DE
:101000003A788DF80E000696ADF80C308DF80B800E
:1010100002F0FF05002A42D1234803A93E70C847C9
:101020003D7004460028DED1214D4FF0205117209D
:10103000A847204A43460092DFF87C804FF4000224
:101040000B211E48C0471E4F4FF400011B48B847F4
:101050001C493720A8471C4B4FF4000200930C2179
:1010600023461A48C0474FF400011848B8474FF4C8
:1010700080524FF4006120463446154B19601A60C7
:101080004FF04051A8474FF060513046A8474FF00D
:1010900040513B20A847204609B0BDE8F0834FF0FF
:1010A000FF34A0E79416072000C00840794A0800E2
:1010B00055460800E90D08001D410800000E0E40CD
:1010C000D14508000B000028910D080000100E40CB
:1010D00000E100E0F0B518220125002487B0494E58
:1010E0000DF1030303933378ADF804508DF80340FA
:1010F0008DF80640029504958DF81420002B40D100
:1011000003F0FF074048414B01A9357098479DF90E
:1011100003403770002C34D0402C64DC362C41DD89
:101120003B4A28463B4B1278984738463A4B9847FB
:10113000322CA8BF3224232CB8BF23246420233CA4
:1011400064B200FB04F435494FF42472A1FB04148B
:10115000E408632C28BF6324041B02FB04F4304B17
:10116000A3FB0434640900214FF424722D482E4B54
:101170009847224600212B482C4B9847002007B067
:10118000F0BD2846244B98472046224B98474FF401
:101190002472C4F1640402FB04F4214BA3FB043465
:1011A0006409E0E7322CA8BF3224232CB8BF2324E3
:1011B00064212846A4F123056DB201FB05F5174B08
:1011C000154AA3FB05349047124B3846984740F226
:1011D0008153E408632CA5F10F0528BF63249D42C9
:1011E000D5D82024BFE70B4E3B20B0473846104BE4
:1011F0009847074B28461D701D70B0473846064B70
:10120000984795E79416072000C00840A1490800B8
:101210009516072015460800F94508008988888832
:101220001F85EB5100000840F16C0800E96C0800D4
:10123000A904080008B5054B1B780BB9002008BDB0
:101240000020034B9847002008BD00BF95160720DB
:101250003146080008B53B20044B9847044B012059
:1012600098470022034B1A7008BD00BFF9450800DB
:10127000A90408009516072008B53B20044B9847A1
:10128000044B002098470122034B1A7008BD00BF91
:1012900015460800A90408009516072010B50E4C45
:1012A0000E4B1B20984720464FF41C2200210C4B6C
:1012B000984720464FF4247200210A4B98474FF478
:1012C000A47220460021084B984720460021074B76
:1012D0009847002010BD00BF00000840F1430800FF
:1012E000C16C0800F16C0800E96C0800E16C0800B2
:1012F00070B50C4D04464FF42472284600210A4B69
:1013000098474FF4247CC4F164020CFB02F2074EB0
:101310002846A6FB02420021054B520998470020AF
:1013200070BD00BF00000840F16C08001F85EB5144
:10133000E96C08000020014B1870704796160720D2
:1013400038B53A200C4CA047003818BF01200B4D8F
:101350002B78984200D138BD3A20A04748B10120EF
:10136000074B98473A20A047003818BF0120287043
:1013700038BD034B9847F5E7DD4508000802072014
:10138000A904080038B54FF08055164C164B1C20A8
:10139000984720464FF440420121144B9847144A85
:1013A00020460121134B984720460121124B9847B4
:1013B00001212046114B9847114BC3F88050BFF3D1
:1013C0004F8FBFF36F8F4FF0800CC3F880512046D2
:1013D00083F81CC3102201210A4C1D60A047002085
:1013E00038BD00BF00000840F1430800C16C080090
:1013F000A037A000F16C0800E16C0800016D080046
:1014000000E100E0F96C0800012110B50C480D4B1B
:101410009847C10600D410BD0B4C0C4B984723686D
:101420000133236023685A0706D023681B07F2D1D3
:10143000BDE81040064B1847064B9847F5E700BF3C
:1014400000000840016D08009816072035120800BA
:1014500035130800D510080001222DE9F043A0F54E
:101460001670304C83B2B3F5167F8DB0227052D80F
:1014700001254FF034092C4B02A9A3FB0030C20810
:10148000C0F3C31343EA02135340DAB2C3F3850334
:10149000534083EA5303DB07244BC0F3C700D3F860
:1014A000008058BF60F07F008DF806000DF1060245
:1014B0001F48204B4FEA1847CDE90352ADF808808A
:1014C0008DF80A7005958DF818909847064628B152
:1014D0000023184623700DB0BDE8F0830DF107031B
:1014E000CDE908531248144B07A9ADF81C808DF8BC
:1014F0001E700A958DF82C909847034678B99DF890
:1015000007109DF80620237091420CBF284618460C
:101510000DB0BDE8F08300200DB0BDE8F08330468B
:101520002670D8E794160720CDCCCCCC50DA080032
:1015300000C00840794A0800A149080070B5124966
:1015400084B0124C1120A0470F491220A0474CF242
:10155000503134220E4CCDE902120E4B162001946C
:1015600098470D480D4B01A903240D4D0D4E98478A
:101570002B781BB940F24C40B04710B9013CF7D171
:10158000204604B070BD00BF0100000855460800A9
:1015900000BD0105F143080000C0084049490800AA
:1015A0009416072059140800034B1B780BB9034B02
:1015B00018470020704700BF9416072059140800F0
:1015C000024A034B508800F07F001847A4230720ED
:1015D00035520800154B1B681B681A79824222D9C4
:1015E00030B4134C2360B3F802C09C44634517D257
:1015F000002504E01A78012513449C450CD95A783B
:10160000042AF7D19A788242F4D1DA788A42F1D169
:1016100005B12360012001E00020236030BC704749
:10162000002030BC70470020704700BFA416072080
:10163000A81607202DE9F0411C4C23787BB300212C
:101640001B4E0546B04750B3DFF86880D8F800302D
:101650005B6853F82570FB68984723780146F3B11F
:101660002846B0470546D0B1134B144E1C68D8F835
:101670000020237812681C4453881A44A24206D8DA
:1016800008E0052B0FD023781C44A24202D96378CE
:10169000042BF6D17B6898472846BDE8F0810025E9
:1016A0002846BDE8F081A078B047E0E7A116072002
:1016B000D5150800A4160720A8160720995208007F
:1016C000184B1B785BB32DE9F041174B0546984743
:1016D00010B3164B164E1C68164F316823780A68F3
:1016E0001C4453881A44A24206D808E0052B0DD0AA
:1016F00023781C44A24202D96378042BF6D14B68AC
:1017000053F82530BDE8F0411B681847A288E178FE
:10171000A078B8470028E0D10020BDE8F081002083
:10172000704700BFA1160720D5150800A81607208E
:10173000A4160720E5550800014B1868704700BF44
:10174000A8160720004B1847F14E0800F8B50D4FBA
:101750000D4B98473B787BB10C4D2B681B681B7970
:1017600053B1002420460A4EB0472B6801341B6851
:10177000E0B21B798342F7D80023064A3B701380FE
:10178000F8BD00BFA116072081510800A41607204C
:10179000351608009C160720F8B50C4F3B787BB136
:1017A0000B4D2B681B681B7953B100242046094E52
:1017B000B0472B6801341B68E0B21B798342F7D82D
:1017C0000023054A3B701380F8BD00BFA116072017
:1017D000A4160720351608009C16072038B50C4BB8
:1017E0001B789BB10B4D2B681A68127972B10024DB
:1017F00022465B68013453F822301B6903B19847D5
:101800002B68E2B2196809799142F2D838BD00BF5D
:10181000A1160720A416072000232DE9F047914CBC
:101820002288C4E90433B2F5E07FA38100F0D280BE
:1018300094F900202378002A0EDB13F0600F79D092
:1018400013F01E0F40D003F01F03022B00F0B880EE
:1018500000252846BDE8F087E588002DF8D013F074
:10186000600FEDD113F01F0200F07381012A40F0E8
:10187000C58062780A2A24D1012D22D17A4A1278B1
:10188000FAB17A4A267917683A681279B24218D9B9
:1018900000213046764B98470546002800F0D1805D
:1018A0007B6853F82630DB6898470246714801216F
:1018B000714B02709847CCE7012A00F05B81022A45
:1018C0006ED013F01E0FC3D1A388674E022B04BF46
:1018D0000123A3803378002BBAD0644F94F804809E
:1018E0003D682B681B79984540D3227802F01F028F
:1018F000022AADD1002BABD00024A046DFF87091B6
:101900006B68013453F82850EB68984733780146E8
:10191000002B9DD040465FFA84F8C847002897D036
:10192000AB689847002839D13D682B681B7943453F
:10193000E6D88DE713F01F02BED16278013A082A7B
:10194000BFD801A151F822F0471A0800C3180800B7
:10195000231A0800C3180800431B0800C318080016
:10196000C3180800C3180800951A08000021404653
:101970003F4FB84700283FD06B6853F82850EB68BA
:10198000984733780146002B3FF462AF4046B84792
:10199000002831D0AB68984700282DD0012558E7A2
:1019A0006278012A00F00381032A06D1E288618867
:1019B0000A4392B2002A00F0CD8113F01E0F83D0AB
:1019C000294E3378002B3FF443AF284F3D682B68F6
:1019D0001B798FE7294B98470246002A0CBF4D22FE
:1019E0005722012526484FF4A57180F8B620224BD6
:1019F00098472846BDE8F087237824E7022A7FF439
:101A000060AF6278002AD8D1022DD6D120791D4B43
:101A1000984702461C482946174B012502809847E3
:101A200017E7E288002A7FF44CAF6288022A7FF42D
:101A300048AF164B9847054618B12379002B00F0A4
:101A4000BE812378FCE6E288002A7FF43AAF6588FD
:101A5000012D7FF436AF0E4A138823F00203138062
:101A6000F7E600BFA4230720A1160720A41607202D
:101A7000D5150800A01607208D520800112C08006B
:101A800030020720F15208009E160720215208005C
:101A90009C160720E288002A7FF413AF9C4B9847DE
:101AA0000028CED0DFF86C92C847DFF86CA2A3788C
:101AB000002800F02581DAF80820527C9A42C0D331
:101AC000964E337883B1964F3B681B681B795BB1A8
:101AD00000252846DFF84C82C0473B6801351B686B
:101AE000E8B21B798342F7D800228F4B1A80A37883
:101AF0003370002B3FF452AFC8473278002800F013
:101B00003381DAF8103002F10052013A03EBC203DC
:101B10001A68834F12793B60002A3FF43FAF0025DB
:101B2000824E2B4605E03A68126812799A427FF697
:101B300035AF18460021B0470135EBB20028F2D18D
:101B40007FE7E288002A7FF4BCAE794B0125236150
:101B50007FE66278062A40D0082A36D0002A7FF431
:101B6000B0AE022D7FF4ADAE29466F48714B984759
:101B700001256EE662780B2A7FF4A3AEE288002A84
:101B80007FF49FAE654A1278002A3FF49AAE257919
:101B9000644B28466688984700283FF452AF284691
:101BA000624BF1B2984700287FF4F8AE49E7E2882B
:101BB00061880A4392B2002A7FF4FFAE20795E4B1F
:101BC000984700287FF4EAAE3BE7012D7FF479AE19
:101BD00029465248574B98473BE661880A0A013A22
:101BE000CDB20E2A3FF62CAE01A151F822F000BF73
:101BF000A51C08007B1C0800B91C0800411808003F
:101C0000411808006F1C0800451C08004118080016
:101C10004118080041180800411808004118080040
:101C200041180800411808002D1C080021214348D4
:101C3000404B9847E388A2899A427FF6AFAE0125D0
:101C4000A38106E6334B9847334B002840F094803D
:101C50009A68527CAA427FF6F4AE1A69354B52F864
:101C60003500418898470722A3685A70E2E72A4A5C
:101C7000304BD06801789847DCE7264B9847264BD5
:101C8000002800F090809A68527CAA427FF6D9AE74
:101C90001A69284B52F83500418898470222A368F8
:101CA0005A70C7E71B4B9847002871D11A4A214B3D
:101CB000906801789847BDE7032D3FF6C1ADDFE896
:101CC00005F01A17140220211D4B1E4E5D183246D6
:101CD00013F8010BAB4222F8020FF9D1490002318F
:101CE0001848144B31709847A4E72221164BECE7B3
:101CF0001521164BE9E7042115480E4B984799E743
:101D0000DAF80020527C9A42BFF4DAAE99E600BFBE
:101D10005D52080021520800B4090720A1160720CF
:101D2000A4160720351608009C160720C1160800C7
:101D3000C11508008D520800F15308000C0207205D
:101D4000D00107207C030720E0030720C8030720F9
:101D5000C40307202079324B98472079314B9847AC
:101D600000287FF41BAE6CE6DAF8043002F1005272
:101D7000013A03EBC203CBE61A68527CAA427FF613
:101D800060AE5A68284B52F83500418898476AE798
:101D900010200221254B244D1A689070D1701868CC
:101DA0000178A84746E71A68527CAA427FF649AEF6
:101DB0005A681D4B52F83500418898476EE71C4E13
:101DC000327892B11B4F3A68126812796AB199461B
:101DD0001846DFF86480C0473B6809F101091B68B9
:101DE0005FFA89F01B798342F5D80022A388134952
:101DF0001B0A013B0A803270032B3FF622AEDFE85C
:101E000003F00B0805020E4B236122E50D4B236105
:101E10001FE50D4B23611CE50C4B236119E500BF49
:101E2000DD570800055308008D520800B40907204B
:101E3000A1160720A4160720351608009C160720B7
:101E40004D630800396308001D6308000163080042
:101E500007490A780F2A01D900207047034610B4B9
:101E6000501C044C087044F82230012010BC70470C
:101E70002C1B0720EC1A072007490A780F2A01D9E2
:101E800000207047034610B4501C044C087044F8FE
:101E90002230012010BC70472D1B0720301B07206B
:101EA000004B18470D0D0800004B1847110D080096
:101EB000054B1B7803B9704710B5044B9847BDE834
:101EC0001040034B184700BF030407206D52080061
:101ED000150D080038B50124044D4FF48061044A03
:101EE000044B05482C709847204638BD0304072052
:101EF0004D370800F9440800EC1607200022014B7A
:101F00001A7070470304072038B50F4B0F4AD98861
:101F10000F48402928BF40211278986099818AB1E2
:101F20000C4C551EEDB2531B251F05EB830504EB2E
:101F3000820401E0AC4205D054F8043D98470028E3
:101F4000F8D038BD002038BDA42307202D1B072062
:101F5000AC160720301B072038B50B4B1A788AB116
:101F60000A4C551EEDB2531B251F05EB830504EBF0
:101F7000820401E0AC4205D054F8043D98470028A3
:101F8000F8D038BD002038BD2C1B0720EC1A0720E4
:101F9000044B5A78222A03BF034A01201A61002009
:101FA000704700BFA4230720AD1F080010B5244BC5
:101FB0009B78013B102B0AD8DFE803F00A171C09B5
:101FC0000909090909090909090909303D0010BD74
:101FD0003E2100201B4B98471B4CA0470028FCD0FB
:101FE000BDE810401020194B18471020BDE81040E4
:101FF000174B1847174B984701220C21164B1748CF
:102000009847174B9847174A53689903FCD41368AD
:1020100043F0254343F005031360FEE7104B984758
:10202000104A53689B03FCD4136843F0254343F0E4
:1020300005031360FEE70C4BBDE81040184700BFD6
:10204000A42307205D430800AD430800A542080013
:10205000014308007912080045450800000A0E40B7
:1020600011510800001A0E40E53C080038B5154C27
:102070006378172B1BD0402B17D14FF0200C124D3B
:10208000124B372293E8030085F808C085E8030067
:102090000F4B104905F10900984728460E4BA560E3
:1020A000984703460120A38138BD002038BD40F287
:1020B000012500210322044B01201D809970A3609B
:1020C000A28138BDA4230720701B072060DA080016
:1020D000816F080054DA0800256F080010B5044B22
:1020E00004489847BDE810400348044B184700BF18
:1020F000511E08006D200800911F0800791E08007D
:102100000A4A53781B2B05D0312B0BD01A2B05D044
:1021100000207047064B012013617047054B0120DA
:1021200013617047044B012013617047A4230720FB
:10213000E5240800492508003D210800002330B4AB
:10214000114A124DB2F802C0114C33B1012B18D014
:102150000133042BF9D130BC704729464CFA03F205
:1021600012F0010206D091F89C2242F0080281F898
:102170009C22EDE791F89C0262F3C30081F89C0277
:10218000E6E72146EAE700BFA4230720040407206E
:10219000A40607202DE9F0411A4B04460068984731
:1021A000C107054603D4AB0715D4BDE8F08120462E
:1021B00050F81C3B00229E69134FF6B23146B847D7
:1021C00094F89C325A07EED50022314604F5E270AD
:1021D000B847AB07E9D504F1F00528460B4B984703
:1021E00048B128460A4B246898470A4B01462046C6
:1021F000BDE8F041184720680221BDE8F041064BD8
:10220000184700BF953F08008D020800D90208005A
:10221000B9020800993F08008D3F08000148024BB1
:10222000184700BF04040720952108000148024B0D
:10223000184700BFA406072095210800174A5388B5
:10224000190A03D0012926D0002070471448DBB2B8
:10225000142B10B517D0182B05D0A3F11000B0FA2D
:1022600080F0400910BDD388032B0AD904210D4CFE
:102270000D4BF03094609181984703460120236014
:1022800010BD002010BDD388032BFAD90421054CC2
:10229000054B1C30EEE70548D9E700BFA423072013
:1022A00004040720701B0720E5020800A40607208D
:1022B00038B5012A04469DF8105041600ED0022A1C
:1022C00008D000220261013B032B69D8DFE803F04C
:1022D000344E510A4FF400520261F4E74FF4805239
:1022E0000261F0E74FF48063E360062D29D0072DEB
:1022F00046D0052D41D0C023A3600022D4F89832E7
:10230000626133B3012B3ED094F89C32264D43F0EA
:10231000020384F89C3204F1F000A84704F11C0089
:10232000A84704F5E270A8472146204A204B51F8FF
:10233000040B9847012038BD4FF40073062DE3606D
:10234000D5D140230022A360D4F898326261002BDB
:10235000D8D1184B112098474FF400323021164B3A
:10236000C3F8802183F811131A60CDE70023E360DE
:10237000BBE74FF4C063E360B7E70023A360BCE7AB
:102380008023A360B9E70B4B122098474FF48022BB
:102390003021094BC3F8802183F812131A60B3E788
:1023A0004FF40063E360A0E78102080000BD01056F
:1023B0002D3E0800F143080000E100E070B53D4CFF
:1023C00082B06088030A03D0012B48D002B070BDF0
:1023D000394DC0B2112817D0122827D01028F5D1B6
:1023E000E388072BF2D1A068D5F898320668002B55
:1023F00037D0012B50D08179437902792F4C00914D
:1024000028463146A047E1E7D5F89832DBB1012BE9
:1024100035D028682A4B984728682A4B98470121CD
:102420002868294B02B0BDE8704018472868274B40
:1024300098472868264B984703212868254B02B007
:10244000BDE870401847244B98474FF400323021C4
:10245000224BC3F8802183F811131A60D9E7204D6D
:10246000B7E71D4B112098474FF4003230211B4B2A
:10247000A068C3F8802183F811131A60BBE7164BDC
:10248000122098474FF480223021144BC3F880214A
:1024900083F812131A60BCE70F4B122098474FF4D1
:1024A000802230210D4BA068C3F8802183F81213DD
:1024B0001A60A0E7A423072004040720B122080023
:1024C000793F0800693F0800893F0800813F080004
:1024D000713F08008D3F0800F143080000E100E073
:1024E000A4060720004B1847BD23080070B504461A
:1024F00000F1F005002228460D4B984720680D4B4F
:102500009847820700D570BD0B4B2068984783071A
:1025100005D420680221BDE87040084B18472846C2
:10252000074B25689847074B014628469847F0E730
:102530008D020800913F0800953F0800893F080080
:10254000B9020800993F0800F8B50D4D6B881B0AC9
:1025500014D0012B00D0F8BD0A4FEB88AA899A420B
:10256000F9D3002BF7D00024074EAB683846195D2D
:10257000B047EB880134A342F7DCF8BD034FECE72A
:10258000A4230720A4060720ED2408000404072044
:102590002DE9F0410024184E184D194FE3B264B1F3
:1025A000012B26D00134042CF8D1164B164898473D
:1025B000BDE8F0411548164B18473B46D3F8983212
:1025C00063B1012BEED11220B0474FF480233022AB
:1025D000C5F8803185F812232B60E3E71120B0475E
:1025E0004FF400333022C5F8803185F811232B6079
:1025F000D8E7084BE2E700BFF143080000E100E044
:1026000004040720511E0800652608000121080067
:10261000791E0800A406072000B50E4A4FF0000EF0
:10262000D1880D48042928BF04210C4B90F89CC286
:1026300093F89C020A4BCCF3C00CC0F3C000587056
:1026400083F800C09360A3F802E0918101205DF857
:1026500004FB00BFA423072004040720A4060720CE
:10266000701B07202DE9F047194D6B781B2B06D006
:10267000312B26D01A2B06D00020BDE8F087154B51
:10268000BDE8F04718476B881B0A1ED0012BF3D119
:10269000114FEC88DFF844806CB100244646DFF827
:1026A00040901C373846C847EB8801349C4206F8F6
:1026B000010BF7D3A4B20120C5F80880AC81BDE8B6
:1026C000F087084BBDE8F0471847074FE1E700BF28
:1026D000A42307203D220800A4060720701B072022
:1026E000B9020800192608000404072050B1012887
:1026F0000AD1094B93F89C22012042F0040283F88E
:102700009C227047054BF5E7002292F89C3262F359
:10271000820382F89C32FFDEA4060720040407200F
:1027200060B101280CD10A4B002093F89C22094982
:102730006FF3820283F89C2208707047064BF3E720
:10274000002292F89C3262F3820382F89C32FFDE10
:10275000A4060720B01B0720040407202DE9F84F2A
:10276000814688B3012831D11C4F012197F89C3252
:102770001B4A03F00603062B117001D0BDE8F88F49
:102780004846DFF860A0D04705460028F6D0DFF8BD
:1027900058B0164EDFF85880B5F5007F28BF4FF4CB
:1027A0000075314648462A460024D847315D013439
:1027B0003846A4B2C047AC42F8D34846D047054695
:1027C0000028E9D1BDE8F88F0A4FCEE701210023A8
:1027D000034A117093F89C32FFDE00BFA406072065
:1027E000B01B0720E9690800396A0800B41B0720FC
:1027F000ED2408000404072030B583B040B301285D
:1028000028D1164C94F89C325A0702D54B79042BE8
:1028100001D903B030BD00238A792046053A9201E0
:10282000D2B209680E4D00921A46A8470D4B206897
:102830009847C307EDD420680B4B984720680B4B93
:102840009847012120680A4B03B0BDE83040184783
:10285000084CD7E7002393F89C32FFDEA40607203C
:10286000B1220800913F0800793F0800693F080045
:10287000893F0800040407202DE9F84F00250124B2
:10288000DFF860A0184FDFF86490DFF86480EEB2E4
:102890004DB1012E23D0042C1FD001340135E4B2F8
:1028A000EEB2002DF5D1DFF84CB09BF89C3203F06E
:1028B0000603062BF1D13046D0470028EBD00BF5AC
:1028C000E27B04E05846C84701463046C0475846B8
:1028D000B8470028F6D1042CDFD1BDE8F88FDFF827
:1028E00018B0E2E7016B0800D9020800B90208003D
:1028F000756B080004040720A4060720394B5A789A
:10290000222A15D09888012810D1A02A25D0A12AE2
:10291000598817D0A22A1FD14FF4807C324AA3F8DD
:102920000CC00A4422F003029A60704700207047EE
:102930009A78422A4CD09888A0F10100B0FA80F031
:10294000400970474FF4807C284AA3F80CC00A4421
:1029500022F003029A607047704700B52449234A69
:1029600091F800E0B1F901C082F800E04FF00B0EE1
:102970005FFA8CFC82F801C0B1F903C05FFA8CFCED
:1029800082F802C0B1F905C09A605FFA8CFC82F847
:1029900003C0B1F907C05FFA8CFC82F804C091F85B
:1029A0000AC082F805C0D1F80BC0A3F80CE05FFAAA
:1029B0008CF39371497ACCF30723D371CCF307439B
:1029C0004FEA1C6C137282F809C091725DF804FB27
:1029D000012207480749807C996008709A81104657
:1029E000704700BFA4230720B04907207049072083
:1029F00044090720701B072070B52E4A82B09378D7
:102A0000422B11D0432B09D09388013B9BB2012B61
:102A100007D85578BDB1012002B070BD5378222B84
:102A2000F2D1002002B070BD5378222BECD10124EA
:102A3000214B9847214B9847214B224A9C749C720A
:102A400090472046E8E7204C294640221F48A047EF
:102A5000294640221E48A047402229461D48A0473B
:102A60001D4C0620A0478520A04701241B4E4FF097
:102A700020511920B0474FF040511A20B0474FF075
:102A800040511B20B0474FF040511C20B0470C4A2A
:102A900013494023009106202946D57215735573BA
:102AA00095731574947494720E4D094AA847204684
:102AB00002B070BDA42307204D1708001945080077
:102AC00044090720451708003D6E0800704907209B
:102AD000B0490720004A0720DD5708005546080086
:102AE000E92A0800B154080070B5254C82B0E37B98
:102AF00038BBEBB1002939D0B4F903C0B4F90130C7
:102B0000204DACEB030C1FFA8CFE0FFA8CFC2B183B
:102B100093F8902000EB0C03013080B2D2B22B442A
:102B2000814283F84020F2D87144A4F8031001E0F8
:102B3000A4F803100023E3736370A370A37202B0C0
:102B400070BD114E53B9114D40230021104A00961B
:102B50000620A8470123A37202B070BD40230021C4
:102B60000C4A0A4D00960620A847EDE7B4F903E0A9
:102B7000B4F90130AEEB030E1FFA8EFED4E700BFAE
:102B80004409072070490720E92A0800B1540800C9
:102B9000B0490720004A072030B583B048BB184D24
:102BA000B5F90540B4EB010E0CD00346154A0B44B1
:102BB000D35C00F1010CDBB213541FFA8CF07045AA
:102BC0000346F4D3611A0BB2A5F8051043B90221EC
:102BD0000C4AAB711370AB725370697103B030BDA6
:102BE000002109480090074A084C8520A04703B0FF
:102BF00030BD034B00210448B3F90530F2E700BFB4
:102C00004409072070490720992B0800B154080097
:102C1000014B987C704700BF4409072070B5284CD1
:102C2000627CD4F82350002A3DD12846254B984792
:102C3000051E18BF01250023234C23702378012B88
:102C400006D823780133DBB223702378012BF8D91F
:102C50001B201E4EB047002323702378012B06D87B
:102C600023780133DBB223702378012BF8D90023BA
:102C700023702378012B06D823780133DBB223702D
:102C80002378012BF8D91B20B04700232370237829
:102C9000012B06D823780133DBB223702378012B74
:102CA000F8D9284670BD0346DB074CBF084B094BDB
:102CB00028469847637C002BB7D00025BBE700BFB0
:102CC00044090720DD450800B41D072031460800EF
:102CD000F9450800154608002DE9F04F83B000299A
:102CE00000F0DF804E1EF6B207464FF0070A4FF0A5
:102CF000000B6E4D6E4CDFF8BC81DFF8BC91C6F165
:102D0000060612E04FEA5B0B53B3CAF1070047FA1D
:102D100000F06A4B00F0010098474BEAC01B5FFAD5
:102D20008BFB0AF1FF3A564516D02B7813F0080FAB
:102D30002B7CE7D1002B60D047FA0AF05F4B00F004
:102D40000100984700FA0AF00AF1FF3A40EA0B0B3B
:102D500056455FFA8BFBE8D1584603B0BDE8F08FCB
:102D6000CAF107026B7A47FA02F202F00102002B65
:102D700040D11A20002A00F09180514B984700233F
:102D800023702378012B06D823780133DBB223701C
:102D90002378012BF8D91B20C04700232370237808
:102DA000012B06D823780133DBB223702378012B63
:102DB000F8D91920C84700232370C21A237818BFF6
:102DC0000122012B06D823780133DBB2237023784C
:102DD000012BF8D91B200192C047002323702378D0
:102DE000019A012B06D823780133DBB223702378B4
:102DF000012BF8D94BEAC21B93E76B7A47FA0AF228
:102E000002F00102002B3FD11A20002A43D02C4BA4
:102E10009847002323702378012B06D823780133A9
:102E2000DBB223702378012BF8D91B20C047002385
:102E300023702378012B06D823780133DBB223706B
:102E40002378012BF8D91920C84700232370C21A10
:102E5000237818BF0122012B06D823780133DBB277
:102E600023702378012BF8D91B200192C04700233F
:102E700023702378019A012B06D823780133DBB223
:102E800023702378012BF8D902FA0AF242EA0B0BDD
:102E90005FFA8BFB45E70B4B9847BAE7094B98471E
:102EA0006DE78B46584603B0BDE8F08F4409072014
:102EB000B41D072031460800DD4508001D2C080020
:102EC000F9450800154608002DE9F04F0C46A4F11D
:102ED0000705B5FA85F5C30914BF714B714B8046E0
:102EE00083B01A206D099847AC4240F2D480631E2B
:102EF00000245B1BC5F10609DBB2DFF8ACA16B4F08
:102F0000DFF8ACB16B4EC5F10705A9EB03099AF8E0
:102F10000020110765D5C5F1070248FA02F2D20771
:102F20004CBF5F4B5F4B1C2098471C20B8470022CA
:102F30008BF800209BF800206408012A09D89BF830
:102F400000200132D2B28BF800209BF80020012A29
:102F5000F5D91B20B04700228BF800209BF80020F9
:102F6000012A09D89BF800200132D2B28BF8002048
:102F70009BF80020012AF5D91920B84700228BF8C8
:102F80000020811A9BF8002018BF0121012A09D8CE
:102F90009BF800200132D2B28BF800209BF8002071
:102FA000012AF5D91B200191B04700228BF800209F
:102FB0009BF800200199012A09D89BF800200132D2
:102FC000D2B28BF800209BF80020012AF5D9A94045
:102FD000013D0C43A945E4B299D1204603B0BDE8B8
:102FE000F08F48FA05F2D3074CBF2D4B2D4B1C2018
:102FF00098471C20B84700228BF800209BF800203F
:10300000012A09D89BF800200132D2B28BF80020A7
:103010009BF80020012AF5D91B20B04700228BF82D
:1030200000209BF80020012A09D89BF800200132DB
:10303000D2B28BF800209BF80020012AF5D9192084
:10304000B84700228BF80020811A9BF8002018BF97
:103050000121012A09D89BF800200132D2B28BF855
:1030600000209BF80020012AF5D91B200191B047D0
:1030700000228BF800209BF800200199012AA6D895
:103080009BF800200132D2B28BF800209BF8002080
:10309000012AF5D99BE70024204603B0BDE8F08F54
:1030A000F94508001546080044090720DD450800D9
:1030B000B41D07203146080030B5574C83B0B4F931
:1030C0000730B4F901105BBBB4F803308AB2981A28
:1030D00000B2012809B21FDD504D501CA4F80100B8
:1030E0000FFA80FC2944207891F8401010F0020F6C
:1030F000C9B249D105EB0C0090F84000023241EA18
:1031000000210131A4F8071091B25B1A1BB2002B09
:10311000A4F8012012B20BDC0123E37303B030BD2D
:10312000B4F803300AB289B25B1A1BB2002BF3DD8C
:10313000207810F010001CD10821394B98472378D3
:103140009B060BD5B4F90510344A4B1CA4F8053086
:10315000C3F140031BB2002B50543DDDB4F90730DE
:10316000013B1AB2A4F807300AB90023237003B058
:1031700030BD2A484B1C0244082192F84000284ADE
:10318000A4F801309047DAE701314306A4F80710AC
:1031900037D410F010002BD1214BC9B29847002131
:1031A0002378E1719A062172DFD5B4F90530E8542D
:1031B0000133C3F14002A4F8053013B28B42D4DCD2
:1031C0004FF0010C174A40230092174D134A8520F7
:1031D00084F80AC0A847C8E74FF0010C1149402302
:1031E0000091114D0021852084F80AC0A847B5E759
:1031F00005EB0C0090F840000232A4F80120C0B2A8
:10320000CAE705EB0C000232084BC9B2A4F8012052
:1032100090F840009847C2E744090720704907200A
:10322000D92C0800992B0800B1540800C92E0800B9
:103230002DE9F0475E4C82B02378803B072B00F2EB
:10324000A880DFE803F0137C8D54656C72040021C4
:103250000126584A85200092B4F90530564A574D48
:103260002170A672A84702B0BDE8F087B4F901202A
:10327000B4F9031093B2C91A09B2012912B240F38A
:103280008F804D49981C01331BB20A440B4492F8BD
:10329000408093F8407001260025DFF82491DFF884
:1032A00024A15FFA88F8A4F80100FFB20EE0D3076A
:1032B00002D4237C002B6FD14FF06051C847002D02
:1032C00071D0082E65D001360135F6B22B1D04EB06
:1032D0008303D3F8070048FA05F247FA05F30028FC
:1032E000EFD0D907E3D44FF02051C847E9E70125D3
:1032F00000210323304A2F48304E009095708520DE
:1033000021706371A572A171B04702B0BDE8F0876A
:10331000012200236272237002B0BDE8F08700230F
:103320006372237002B0BDE8F0870022B4F9013067
:1033300022700233A4F8013002B0BDE8F08700210A
:10334000032301261C4A1B481C4D009091708520C8
:103350002170A6726371A171A84702B0BDE8F08721
:10336000B4F90120B4F9031093B2C91A09B20129C2
:1033700012B215DD0020104920700A4492F8402056
:103380009A1C01331BB20B4493F84030A4F801207F
:1033900069E70023237066E74FF04051C84790E784
:1033A0000123E3735FE7D4F81700D0478BE700BF32
:1033B00044090720992B080070490720B1540800E0
:1033C000554608003146080010B5044B044898479C
:1033D000BDE810400348044B184700BF791E0800A1
:1033E000F9290800FD280800511E080030B5304CAE
:1033F00083B0A37C002B4DD0A37A002B4AD1E17B74
:1034000009BBB4F90120B4F9033090B21B1A1BB206
:10341000002B12B240DD23786BB9264BD4F80B1089
:103420001A4492F840300130DBB24A1CA4F8010083
:103430002370C4F80B201B064CBF1F4B1F4B03B05F
:10344000BDE830401847B4F901E0B4F903C0ACEB73
:103450000E0C0FFA8CFCBCF1000F0FDD1A4615485C
:103460000EEB0201014491F8401001339BB202447B
:10347000C9B2634582F840101A46F1DB4FF0010CE7
:103480000F4940230091062000210E4A0E4D84F87A
:103490000AC0A84703B030BD4FF0010C084A4023D2
:1034A0000092094D094A062084F80AC0A847F1E7AE
:1034B000440907207049072031320800B93008005C
:1034C000E92A0800004A0720B1540800B049072043
:1034D0000020294A294953780870103B252B18D819
:1034E000DFE803F01D212529172D311717171717AE
:1034F0001717171717171317171717171717171760
:10350000171717173539173D41199378043B0B2BC3
:103510002DD9002070471A4B012013617047194BB9
:10352000012013617047184B012013617047174B3E
:10353000012013617047164B012013617047154B32
:10354000012013617047144B012013617047134B26
:10355000012013617047124B012013617047114B1A
:10356000012013617047104B0120136170470F4B0E
:1035700001201361704700BFA4230720B61D072058
:10358000353B08004536080025360800B1350800EF
:10359000DD3508007536080085390800353C08001F
:1035A000F5380800B53B0800293A0800D53908006D
:1035B00038B5064B064A5C6805201D689047054AE9
:1035C000054B04F1C04414601D6038BDAC160720E3
:1035D000B53C0800C01D0720C41D07202DE9F0419F
:1035E0000D4F01203C680D4E7D68B04774B107EB6C
:1035F000040CEC1F0A4DFB1DE41B0CF1070CE21838
:1036000013F8010F296863458854F8D13346BDE8A3
:10361000F0410020184700BFAC160720B53C080059
:103620009009072008B50420034B9847034A044B30
:1036300052681A6008BD00BFB53C0800AC160720F0
:10364000B81D072070B5074B0220D3E90054064B84
:103650009847294604F1C040044A054BBDE8704034
:10366000184700BFAC160720B53C080061390800B8
:10367000D94408002DE9F04F2C4983B0D1E900234B
:10368000043A8E6804D02A480C311844294B9847D4
:10369000F30722D5264B370CD3F800801DD0002429
:1036A000C6F34003244DDFF894A0DFF89490DFF8D0
:1036B00094B00193C6F380060120A847019B7BB913
:1036C0000EBB0020A8474D20D0473220C847013408
:1036D0004D201D4B9847BC42EED103B0BDE8F08FA2
:1036E0004FF4A062DBF800004FEA186C00F802C04B
:1036F00008FB08F0013240F00500B2F5A26F8044EB
:10370000F0D1002EDDD04FF4C062DBF800004FEAAC
:10371000186C00F802C008FB08F0013240F0050008
:10372000B2F5C26F8044F0D1CBE700BFAC160720E2
:10373000081E0720516D0800B53C0800F945080037
:10374000B5010720900907201546080070B5A8B9F3
:10375000184B1B78D3B969B1174B184E1848194448
:10376000026813F801CB3468551C9942056004F8CF
:1037700002C0F5D1134B9847042816D0BDE870401D
:103780004FF48061104A0C48104B18470A2BF5D1B2
:1037900039B1094D0E4E4C1915F8010BB047A54231
:1037A000FAD138200B4B9847E8E70B4B002098479D
:1037B000E4E700BFB61D0720EC160720900907209C
:1037C000B81D0720F13C08004D370800F9440800F7
:1037D000753D080015460800B53C080070B53A4C28
:1037E0006378123B232B13D8DFE803F01C12122658
:1037F00012121212121212121212121212121212A9
:10380000121212121212121212123E4A125860149E
:10381000002070BDE388402BFAD82C4A0120A2601A
:10382000A38170BD00222A4B2A49186809681A60D2
:10383000A081A160012070BD274E3120B047034612
:10384000003B18BF0123254D32202B70B0470021CB
:1038500003465B1A4FF0040218BF01230120A56044
:103860006980A2816B7070BD02221D481D491B4BEF
:1038700000780978187059700120A360A28170BD8A
:103880000321194B19481A88144B00785A70120AF0
:1038900018709A700120A360A18170BDE388402B4D
:1038A000B6D8134A0120A260A38170BDA0780A4B4C
:1038B0009847031E18BF01230121084A08461370C8
:1038C000A260A18170BD00BFA423072008220720A9
:1038D000C41D0720C01D0720DD450800701B072000
:1038E000BD1D0720BC1D07208C090720482207208A
:1038F000C81D072038B5164BD9889A898A4215D336
:103900009A68137892F801C0907883EA0C0383F0E8
:10391000AE03984207D1022916D91488A4F516736C
:10392000B3F5167F03D901220A4B1A7038BD032262
:10393000084D2046084B2A7098470028F6D00223ED
:10394000064A2B70148038BD0422024B1A7038BD11
:10395000A423072048220720A91508008C09072066
:1039600000B1704710B5054B04469847022800D0B7
:1039700010BD2046BDE81040014B1847F13C08003F
:10398000B53C08000D4A5388A12B04D0A22B11D0BE
:10399000A02B07D070470A4B10B598470A22094B55
:1039A0001A7010BDD388042B0ABF074B074818684C
:1039B000074B18470022034B1A707047A4230720B7
:1039C000693D0800B61D0720AC16072040420F00D5
:1039D000FD3C08000F4B9B78052B04D0062B0CD028
:1039E000042B05D070474FF0805136200A4B184702
:1039F0004FF040513620084B184710B54D20074B6B
:103A00009847FA20064B9847BDE810404D20054BDB
:103A1000184700BFA423072055460800F9450800B1
:103A2000B5010720154608003A4BDA88022A00D073
:103A3000704770B59A6814786A2C07D85B885278FA
:103A4000A12B13D0A22B17D0A02B00D070BD013A10
:103A5000122A0BD8DFE802F0493A0A0A0A0A0A0ACF
:103A60000A0A0A0A0A0A0A412F2419002046BDE858
:103A700070400021284B1847002A3DD0012AE5D18B
:103A80002046BDE87040254B1847254E3068002879
:103A90003BDA214D4FF060512046A847346070BD9D
:103AA000204E306800281CDA1B4D4FF04051204654
:103AB000A847346070BD1C4E3068002821DA164DCE
:103AC0004FF020512046A847346070BD2046BDE825
:103AD00070404FF06051104B1847144E306800286A
:103AE000E2DB00210C4DA847DFE72046BDE870402F
:103AF0004FF02051084B18472046BDE870400C4B52
:103B000018470021044DA847DAE70021024DA847D5
:103B1000C0E700BFA423072055460800F945080068
:103B2000C0010720CC010720C4010720C8010720DD
:103B3000154608002DE9F041174C6388A03B042B83
:103B400017D8DFE803F0181C20240300E388A289BB
:103B50009A420ED3013B3F2B0BD800250F4E104F3E
:103B6000A368585DB847E38801359D4206F8010B0C
:103B7000F6DBBDE8F0810B4BBDE8F04118470A4B7E
:103B8000BDE8F0411847094BBDE8F0411847084B24
:103B9000BDE8F041184700BFA423072008220720F2
:103BA0001D040800D5030800A5040800FD03080053
:103BB0000D0408002DE9F041174C6388A03B042B4D
:103BC00017D8DFE803F0181C20240300E388A2893B
:103BD0009A420ED3013B3F2B0BD800250F4E104FBE
:103BE000A368585DB847E38801359D4206F8010B8C
:103BF000F6DBBDE8F0810B4BBDE8F04118470A4BFE
:103C0000BDE8F0411847094BBDE8F0411847084BA3
:103C1000BDE8F041184700BFA4230720C81D0720B6
:103C200049030800F1020800B50308003103080049
:103C30003D030800114BDA889989914216D3022A74
:103C400010B50FD903219B680D4C1A78217072B101
:103C5000012A08D1997858780A4B984708B102236D
:103C6000237010BD064C0123237010BD7047587897
:103C70000549064B98470028F3D0F0E7A423072016
:103C8000BD1D0720C9010800BC1D0720290208002E
:103C900010B5044B04489847BDE810400348044B56
:103CA000184700BF511E0800DD370800D134080056
:103CB000791E080038B5084B04469847074B1A7818
:103CC0002AB901251C70064B9847284638BD0025A7
:103CD000034B9847284638BDF56308004922072062
:103CE000356408000022014B1A70704749220720F2
:103CF000014B1878704700BF49220720F0B5124BDE
:103D000085B00546332098470024C0220F4E104B43
:103D10001320CDE90052CDE9024498470D4A0E4BDD
:103D20006946304698470D4F4FF000613420B84740
:103D30004FF000613820B847094A3046094B5460BB
:103D4000984705B0F0BD00BF1546080000000A40C6
:103D5000F143080000BD01059D3E080055460800DE
:103D6000000E0E40693F08003320014B184700BF8A
:103D7000F94508000146014B01481847993F0800E2
:103D800000000A40F0B5042687B004460D460F2215
:103D90000E210C480C4F02AB0096B84770B9042DA9
:103DA00026462A46044628BF042225B13046074B42
:103DB00002A992009847204607B0F0BD1024204683
:103DC00007B0F0BD000A0E4011010720516D080038
:103DD000B2EB011F84464FEA011012D3430803EBF4
:103DE000C202B2FBF0F24FF6FE71D308581E8842B1
:103DF00013D8120402F4E0221A430020CCF8202049
:103E00007047C9004B0803EBC202B2FBF1F24FF658
:103E1000FE71D308581E884201D901207047DCF892
:103E2000041041F40021CCF80410E2E72DE9F84336
:103E30004FF4807C00234FF088084FF0240E4FF49D
:103E40000027DFF84C90134EC0F8E49033604360D5
:103E500043628362C0F80080C0F800E0C0F800C090
:103E6000076091B10D460C4B09680446984760B94C
:103E7000D5E9013213432A691343EA6813436268A0
:103E8000336013436360BDE8F8830120BDE8F88325
:103E90000041535550220720D13D08002DE9F04143
:103EA0004FF0240C00244FF0880E4FF480774FF42D
:103EB0000026DFF8AC802B4DC0F8E4802C60446015
:103EC00044628462C0F800E0C0F800C00760066089
:103ED000F1B10346886803281AD8086802EB50023B
:103EE000B2FBF0F24FF6FB70141F844210D81A6236
:103EF0004A68D1E9020442EA040141F4802242F016
:103F00000E022A6003280DD8DFE800F005201A12FF
:103F10000120BDE8F08121F4803242F4802242F495
:103F200087722A60596800200A435A60BDE8F08110
:103F300021F4807242F4A02242F00E022A60F1E7DE
:103F400041F4A02242F487722A60EBE721F4803228
:103F500022F4807242F4802242F00E022A60E1E7ED
:103F6000004153554C22072040230360704700BF97
:103F700080230360704700BF10230360704700BFB9
:103F800020230360704700BF81607047C1607047A5
:103F9000006970474069704743699B07FCD5C1F3CE
:103FA0000801C16100207047314A136B03F003031D
:103FB000012B2CD0023B012B1ED8136AD90138D516
:103FC0002C482D4B03602A4A136B03F00303022B8A
:103FD0003CD02A4B26490A6B02F07002702A05D0A9
:103FE0000A6BC2F30212D34003607047244AA2FB5B
:103FF00003235B0803607047224B1E485B6A13F083
:10400000800F14BF4FF400434FF4FA43E2E7136A02
:10401000DB010BD4126A02F07002102A21D0164B79
:1040200019491448202A18BF0B46D3E7124B1148F0
:10403000D0E7154B0F480360136A03F07003102B91
:1040400012D0202BBFD10C4B0360BCE7916A0368F0
:10405000C1F30A4101FB0333926AD2B2B3FBF2F31C
:10406000B8E70A4B0348B5E7084B0360ABE700BF6E
:1040700000060E4094090720001BB700001C4E0EDE
:10408000ABAAAAAA001A0E4000093D0000127A004D
:1040900001EB810100EB81010A67704701EB8101AF
:1040A00000EB81014A67704701EB810100EB810160
:1040B0008A67704701EB810100EB8101C1F8802024
:1040C000704700BFF8B5124B04460E469847114B97
:1040D000054620469847054019D00F4C04F160076B
:1040E0002368B34205D0BC4211D023691034B342D7
:1040F000F9D161682942F6D0E36830469847636891
:10410000BC4225EA030502D01034002DE8D1F8BDE9
:10411000D5450800D9450800542207202DE9F84369
:104120001D4F3E68062E28D80D4611461A461B4BD9
:104130004FF0000E9C4606F1010804E076450CF1B4
:10414000100C1DD0A646DCF800900EF10104A94524
:10415000F4D1DCF804908945F0D1089E03EB0E14ED
:10416000C4E90112E660F0454FEA0E141D510FD06C
:104170000B4B98470020BDE8F8830120BDE8F88389
:1041800003EB061436019D51C4E90112089BE3605C
:10419000C7F80080ECE700BFC422072054220720A4
:1041A000A94508000B210148014B1847000E0E409D
:1041B000C54008000C210148014B184700100E4073
:1041C000C54008000D210148014B184700120E4060
:1041D000C54008000E210148014B184700140E404D
:1041E000C5400800013802281AD8DAB12DE9F0419B
:1041F0000D4614460C4FDFF83480561C01E0013C9C
:104200000BD03868D8F8003015F8011B9847002803
:10421000A6EB0402F3DA4FF0FF321046BDE8F0815E
:104220004FF0FF3210467047CC220720C8220720EB
:10423000704700BF004B18474144080070B50F4855
:104240000F4DA8473E2100200E4B98470E4CA0472B
:104250000028FCD00D4B98470D4B0E4A0E4C9A622D
:10426000A0470028FCD00D4B102098470C4B9847D6
:104270002B46BDE870400148184700BF00BD01054E
:104280008D0007205D430800AD430800BD430800D2
:1042900000060E40013F0D20CD43080001430800F9
:1042A000A93F080015490B6B23F0030343F00103FA
:1042B0000B638B6E1B0758BF4FF4006302D504E0FD
:1042C000013B16D08A6E1207FAD50C490B6B23F00E
:1042D000700303430B63886E10F0080008BF4FF4AF
:1042E000006302D007E0013B03D08A6E1207FAD5C3
:1042F0007047012070470020704700BF00060E4045
:1043000015490B6B23F0700303430B638B6E1B0784
:1043100058BF4FF4006302D504E0013B17D08A6E0A
:104320001007FAD50C490B6B23F0030343F002038B
:104330000B63886E10F0080008BF4FF4006302D0D2
:1043400007E0013B03D08A6E1207FAD570470120BF
:1043500070470020704700BF00060E4038B110497A
:10436000104A086A104B024013430B6270470C4A14
:104370000902106A8BB220F45C1121F003010B4397
:1043800043F45C1343F001031362936EDB07FCD527
:10439000136A43F09B7343F480331362704700BF8A
:1043A00000060E40FCFFC8FE02003701024B986E6B
:1043B00000F48030704700BF00060E404FF00052FE
:1043C000014B9A62704700BF00060E40024B986E88
:1043D00000F00200704700BF00060E404FF4441387
:1043E000024AD361936E5B06FCD5704700060E400F
:1043F0000246064B02F07F02C3F80C21D3F80C21D1
:10440000002042F01022C3F80C21704700060E4035
:104410000246064B02F07F02C3F80C21D3F80C21B0
:10442000002042F48052C3F80C21704700060E4071
:104430004FF48073014A83401360704700060E40BA
:104440002022014B5A60704700060E40034BC0F318
:1044500012001A6F10431867704700BF00060E4025
:10446000014B1878704700BFD0220720024B1B7801
:1044700003B17047014B1847D0220720FD1E0800EA
:10448000084B93F900201B78002A03F0600303DB3C
:10449000402B05D000207047402BFBD1024B184722
:1044A000024B1847A4230720591F0800091F0800C2
:1044B000064B10B59847064AC37813700BB101201C
:1044C00010BD044BBDE81040184700BF3917080065
:1044D000D0220720D51E080030B58446154683B08B
:1044E0000B4662460021034C00958120A04703B093
:1044F00030BD00BFB154080030B58446154683B0C6
:104500000B4662460021034C00950220A04703B0F1
:1045100030BD00BFB1540800064B07485968074A30
:104520000860596806484A60196908601B695A6042
:10453000704700BFB4090720800A0720AC09072094
:10454000C80B072038B5A1F10E03012B17D9EFF3E3
:10455000108572B6BFF35F8F00230A4CC9B2237077
:10456000094B03EA02221143084B41F0B44198473A
:1045700025B901232370BFF35F8F62B638BD4FF0BA
:10458000FF3038BDA00C072000FFFF009D01072071
:1045900021F00061B1F1405F0CBF836BC36B13422C
:1045A00014BF012000207047D3060ED59306C0F833
:1045B000B0104CBFC0F8D410C0F8D01053064CBF98
:1045C000C0F8C010C0F8C4107047C0F8B4107047ED
:1045D00001647047C06C7047806C7047430903F5F5
:1045E000001303F207735B02DB6B00F01F0023FA7A
:1045F00000F000F0010070470122430903F50013A9
:1046000003F2077300F01F005B0202FA00F0186368
:10461000704700BF0122430903F5001303F207733B
:1046200000F01F005B0202FA00F05863704700BF01
:104630000122430903F5001303F207735B02996B30
:1046400000F01F0002FA00F0014214BF5863186323
:10465000704700BF430903F5001301F0F04203F275
:104660000773B2F1205F4FEA432335D010B416D858
:10467000B2F1006F1BD0B2F1805F15D14FF0010C89
:1046800000F01F000CFA00F25A64186F104318670C
:1046900011EA0C005A601BD05A6610BC704701F03A
:1046A000E042B2F1405F2FD0002010BC70474FF0C5
:1046B000010C00F01F000CFA00F25A64186F1C6F16
:1046C000204020EA0200186711EA0C005A60E3D18A
:1046D0001A66604610BC7047012200F01F0082403D
:1046E000C8075A644CBF5A661A6611F00A0F14BF05
:1046F0001A625A62880722D4080748BFC3F8842088
:1047000001205A611A607047012200F01F008240A8
:1047100001F0605CC1F38004C9075A644CBF5A665B
:104720001A6654B95A65BCF1605F0CBF1A635A63CC
:104730001A611A60012010BC70471A65F3E7C3F8CC
:10474000802001205A611A60704700BF034602F0C2
:10475000F040B0F1205F29D010B410D8B0F1006F54
:1047600015D0B0F1805F0FD15964186F08431867F6
:1047700012F00100596015D0596610BC704702F064
:10478000E040B0F1405F25D0002010BC7047596474
:10479000186F1C6F204020EA0100186712F001001A
:1047A0005960E9D11966012010BC7047D0075964DF
:1047B0004CBF5966196612F00A0F14BF196259628C
:1047C00090071ED4100748BFC3F884100120596118
:1047D0001960704702F06050C2F38004D207596438
:1047E0004CBF5966196654B95965B0F1605F0CBF8A
:1047F0001963596319611960012010BC704719656C
:10480000F3E7C3F88010012059611960704700BFB9
:10481000FEE700BF1749184808B5814209D0174A7A
:10482000904206D2013A121A22F00302144B0432CB
:1048300098471448144A904207D2013A121A22F0BB
:1048400003020021114B04329847114B114923F008
:10485000604203F1604322F07F02B3F5801F8A605B
:1048600003D28B6843F000538B600B4B98470B4B84
:104870009847FEE7D4DE08000000072078160720DE
:10488000516D080078160720703407203D6E08002F
:104890000000080000ED00E0096D0800B108080004
:1048A000264B99422BD910B4254C264B0C44A10021
:1048B000B2FBF1F1A3FB02239B0B043BFF2B4FF058
:1048C0000002A1F1040135D95B08FF2B02F10102BE
:1048D00010D9072AF8D14FF4E0220902DBB289B2DD
:1048E00013430B43036110BC00207047072AF2D02A
:1048F00049080132FF2998BF1204F7D8EDE74B00B1
:10490000B2FBF3F3043BFF2B4FF0000208D95B0826
:10491000FF2B02F101020BD9072AF8D14FF4E02254
:10492000D9B21B020A439BB21343036100207047B4
:104930001204F5E7FF29DBD8CFE700BF00DC050054
:104940000012FD7FF1197605F8B54FF0FF3E4FF0EC
:10495000800C0827202604220D46C0F828E0016AB2
:10496000C0F800C0016B0760066002600A4B69680E
:10497000044699420DD82A68084B9847A0F10100D7
:10498000B0FA80F040096B7A012B04BF402323600A
:10499000F8BD0120F7E700BF801A0600A148080013
:1049A0008446C868002861D070B400258C68CCF8B3
:1049B00004500B7C4A681B04120202F4407203F498
:1049C000FE03134343F48053CCF80430CCF80C506E
:1049D0004A68002A3AD0012A0B7802DD0B885BBABC
:1049E0009BB2022A02DD8A7842EA03230128CCF82E
:1049F0000C300BBF032301230546002547F230523C
:104A00000226CCF80030DCF82030D90513D4511E32
:104A100072B301281CD09B0721D52346DCF8302037
:104A2000013803F8012B09D047F230521C46DCF85C
:104A30002030D905EBD5052070BC7047DCF820305C
:104A4000DA07FBD570BCDCF8203070471346CDE7A1
:104A50000DB9CCF800609B0705D50125DDE723469D
:104A60000A461C46E3E70A460125CCE701207047C9
:104A7000092070BC704700BFCA68002A38D030B423
:104A80000346002588685D600C7CD1F804C02404CE
:104A90004FEA0C2C04F4FE040CF4407C44EA0C04B1
:104AA0005C60DD604D680DB3012D0C7802DD0C8873
:104AB00064BAA4B2022D02DD897841EA0424DC60E4
:104AC000811807E01A6AD5050DD4540744BF10F8C1
:104AD000012B5A638842F5D101E051070AD41A6AC2
:104AE00012F48070F9D0052030BC70472C46E6E700
:104AF0000120704702221A601A6AD207FCD530BC26
:104B0000704700BF024B187880F00100704700BF6B
:104B1000D12207200C4A034610680C4930B10344E7
:104B20008B42CCBF4FF0FF301360704710B4084C7D
:104B300023448B421460D8BF13602046C8BF4FF097
:104B4000FF3010BC704700BFD4220720FC7F082034
:104B5000404A07204FF0FF30704700BF4FF400532A
:104B600000204B60704700BF012070470020704755
:104B700000BEFEE7704700BF4FF0FF30704700BF38
:104B800090F814C003461CF0010F14D010B4046850
:104B90006FF3000C80F814C05CB10846064951F868
:104BA0002210C90548BF42F080029968234610BC14
:104BB000184710BC7047704700C10A402DE9F0410A
:104BC0005E4D00F1FF3E0EEB4E0305EBC303197D76
:104BD000CA077CD5D3E90241A14202464FEA4E0002
:104BE0004CD0641AB4F5803F18D8554F260457F8B6
:104BF00022C01CF4807F6CD057F82270C7F3021CCF
:104C0000082707FA0CF7013F274200F093801F7D29
:104C100046F029066FF341071F7509E0484B53F82A
:104C20002240E4055ED521264FF4803453F822302B
:104C300000EB0E0C05EBCC0CDCF804301944414BB6
:104C400003EB02135960EFF3108772B6BFF35F8F67
:104C50004FF000083C4981F80080D3F80C8018F030
:104C6000100F49D027B901230B70BFF35F8F62B6D5
:104C700000EB0E0305EBC303D9689960304B91003C
:104C800053F82230DF0506D500EB0E0305EBC30316
:104C90001B7D9E0707D4704405EBC0000021BDE8D2
:104CA000F0412A4B18470123294C2A480B51085838
:104CB000294CC50348BF29484FF0010548BF0B5098
:104CC0004FF48053264803FA02F20D518261BDE889
:104CD000F08157F82230C3F3C123012B22D046F0D4
:104CE0003506A5E753F82240C4F3C124012C9AD01D
:104CF00035264FF480349BE74FF000709E60DCF85F
:104D00000C30CCF810401C44154B00FA0EF0CCF8D7
:104D10000C409861002FDAD101230B70BFF35F8F35
:104D200062B6D4E7082357F82270C7F30217BB40D6
:104D3000A342D4D246F021067AE700BFE42207203E
:104D400000C10A4000C30A40A00C0720814B0800A4
:104D500060C10A4030C10A40F0C10A4090C10A4017
:104D600000C00A402DE9F047EFF3108272B6BFF39E
:104D70005F8F00200123564D56492870C1F820321C
:104D80001AB92B70BFF35F8F62B6DFF84C8198F8C9
:104D90000030032B5CD0514F514E3A88B489A41A8D
:104DA000A4B2002C32D01346DFF838913F2C86BFD6
:104DB00000224024012289F80020B268EFF3108617
:104DC00072B6BFF35F8F002129704249D1F83011CC
:104DD000890732D454B11A44434B1846013312F8B0
:104DE00001CBD9B2A14280F800C0F6D33B88394A42
:104DF0001C4401233C80C2F86031C2F8F0311EB976
:104E00002B70BFF35F8F62B6BDE8F0873749F0883B
:104E10000B8813449BB298420B803CD0DFF8C490BF
:104E200099F800A0BAF1000F35D1736983B39847A0
:104E3000002848D101223B88BDE726B901232B7009
:104E4000BFF35F8F62B6042388F80030BDE8F087B7
:104E5000234E336903B19847EFF3108272B6BFF364
:104E60005F8F002001231B492870C1F820321AB936
:104E70002B70BFF35F8F62B600230221154AC2F880
:104E80006011C6E90433B38188F80030BDE8F087CB
:104E9000134601228FE7042388F80030EFF31081D6
:104EA00072B6BFF35F8F102200200A4B2870C3F840
:104EB0006021C3F8F0210029A6D101232B70BFF394
:104EC0005F8F62B6A0E73C805346B4896EE700BFAF
:104ED000A00C072000C00A40E0220720DC220720A7
:104EE000A4230720D822072000001820DE22072054
:104EF00038B5EFF3108572B6BFF35F8F0022504CC8
:104F0000504B2820227098474F4B98474FF0500C39
:104F10004FF480714D4B4E4A83F828C34FF48020E4
:104F2000596090474B4BD3F8002822F08072C3F8A9
:104F30000028D3F8002842F00072C3F80028D3F804
:104F4000002822F08072C3F80028D3F8002842F429
:104F50008052C3F80028D3F8002842F40042C3F876
:104F600000281A6822F480521A601A6822F44062FB
:104F70001A60D3F8002822F48042C3F80028D3F83E
:104F800004285004FBD50023334803EB430200EB15
:104F9000C202117D013321F00501082B1175F4D1F6
:104FA00002222C4BC3F80828D3F80418090548BF7F
:104FB000C3F80C28274B2949D3F8002842F00202F5
:104FC000C3F80028D3F8002842F48042C3F8002830
:104FD0000B78ABB90120224A08701370EFF31081EF
:104FE00072B6BFF35F8F1F4A2370D3780344D37028
:104FF00061B125B901232370BFF35F8F62B638BD5D
:10500000174B1A783AB900221A70F2E72070BFF3F2
:105010005F8F62B6EDE7EFF3108072B6BFF35F8F7C
:105020004FF0000C0F498A78013A8A7084F800C06A
:105030000028E8D101222270BFF35F8F62B6E2E759
:10504000A00C0720F14308003142080000E100E015
:105050004D44080000C00A40E4220720DA2207205D
:10506000D922072020340720F0B4EFF3108672B65F
:10507000BFF35F8F0021224A224D1378297063B35A
:105080000121214B1170D3F8002822F48042C3F88B
:105090000028D3F804285204FBD51A68082722F404
:1050A00080721A6001211022042402209F619961FC
:1050B0009A619C6198619F609C609860D9609A60D9
:1050C000D3F8002842F48042C3F800281EB92970A2
:1050D000BFF35F8F62B6F0BC7047EFF3108072B61B
:1050E000BFF35F8F09492B708B7801338B700028D9
:1050F000C6D101232B70BFF35F8F62B6C0E700BF3C
:10510000D9220720A00C072000C00A402034072025
:10511000174B1849D3F8002822F48042C3F800281E
:105120001A6842F480721A60D3F8002842F4804270
:10513000C3F800280B7813B900230B70704710B424
:10514000EFF3108472B6BFF35F8F4FF0000C0A4A82
:105150000A489378013B937080F800C024B901237A
:105160000370BFF35F8F62B600230B7010BC7047F3
:1051700000C00A40D922072020340720A00C0720B5
:1051800070B5EFF3108572B6BFF35F8F00261D4C2C
:105190001D4A2670D2F800381C4923F48043C2F817
:1051A000003888471A4B1A78C2B9174B1949D3F8F7
:1051B000002822F40042C3F80028D3F8002822F483
:1051C0008052C3F8002888472820134B984725B9F8
:1051D00001232370BFF35F8F62B670BD1E70EFF3C3
:1051E000108172B6BFF35F8F0C4A2670D378013BF3
:1051F000D3700029D9D101232370BFF35F8F62B62A
:10520000D3E700BFA00C072000C00A4011510800DE
:10521000DA22072035420800114408002034072014
:10522000034BD3F8040810F4405018BF0120704716
:1052300000C00A40084B00F07F001A6822F080028C
:105240001A601A6822F07F0202431A601A6842F05C
:1052500080021A60704700BF00C00A40024B186805
:1052600000F07F00704700BF00C00A40024B186A80
:10527000C0F3CA00704700BF00C00A40024B186A62
:10528000C0F30D00704700BF00C00A40014B98609A
:1052900099817047A423072000F00F02082A00D943
:1052A00070470121F8B50E4F01FA02FCFB690D4D64
:1052B00023EA0C03FB6155F82230501E0A4C00EB28
:1052C000400004EBC00423F0020345F822302046DE
:1052D000064EB047237D6FF382032375F8BD00BFF0
:1052E00000C00A4000C10A40E4220720814B0800A8
:1052F000034B00F00F0053F82000C0F3C04070478C
:10530000C0C10A4000F00F03082B34D82F4A52F8CE
:105310002320110331D42E495A1E02EB420201EB25
:10532000C20C9CF8141011F0040226D111F00101F6
:1053300021D1F0B4EFF3108572B6BFF35F8F254C27
:10534000020621701BD42449402051F8232022F466
:10535000007241F823204FF40021204A42F8230034
:10536000903242F823106DBB01202070BFF35F8F95
:1053700062B6F0BC70470020704701207047184AA1
:1053800052F8232012F4405FDDD001209CF8142055
:10539000144942F004028CF814204FF480520E4E4F
:1053A00041F8230056F82310DFF83CC00F4F41F4BA
:1053B000007146F823104CF8232002FA03F3BB6176
:1053C000002DD2D0F0BC0120704700BFC0C10A4000
:1053D000E4220720A00C072000C10A4060C10A4057
:1053E00030C10A4020C20A40F0C10A4000C00A4051
:1053F00000F00F0008284BD8F8B5411E254C01EBF2
:10540000410204EBC202157D4B006D0724D54FF419
:105410008055167D204F6FF38206DFF880E0167509
:10542000DFF87CC047F820508540CEF8145007EBD9
:10543000800682005CF82000070315D40B4404EBBF
:10544000C302117DDB00C80704D56FF30001E358E8
:10545000117598470120F8BD114D820055F82000C4
:105460000003F7D50C4E16440E481058450606D5D5
:1054700040274FF480250C481750903015504FF4BA
:1054800000200A4D3060505940F400705051D5E76B
:1054900000207047E422072020C20A4000C00A40D2
:1054A000C0C10A4030C10A4060C10A4000C10A4080
:1054B0002DE9F84F00F00F00434D082855F82080E3
:1054C00074D80126414C06FA00F7E46927426DD0F2
:1054D0003F4C54F82040240368D400F1FF3C3D4F7A
:1054E0000CEB4C0E07EBCE0E9EF814400CFA06FAAD
:1054F00014F0040B5AD1EFF3108472B6BFF35F8F30
:10550000DFF8D49089F800B09EF814B01BF0010FBA
:105510004BD19EF814B04BF0010B8EF814B024B9A7
:1055200089F80060BFF35F8F62B60026DDF828E0DF
:105530000AEB0C0447F834E007EBC404C4E9012388
:10554000C4E9036611B9B3FA83F14909E24407EBF0
:10555000CA073B7D5FFA8CFC61F34103BCF1050F88
:105560003B7526D9EFF3108272B6BFF35F8F00212F
:105570004FF4805389F800101449834018F4807F59
:105580008B6114BF0121022155F8203023F40073F0
:1055900045F82030114B43F8201001203AB989F822
:1055A0000000BFF35F8F62B601E034B10020BDE8B8
:1055B000F88F0B4B98470120F9E789F80060BFF39B
:1055C0005F8F62B62046F2E700C10A4000C00A4081
:1055D000C0C10A40E4220720A00C0720F0C10A4005
:1055E000BD4B080000F00F03082B00F2DA802DE914
:1055F000F04F744C85B0E56901249C40254040F093
:10560000CC8001F00304013CE4B2022C00F2C5801E
:105610006D4E6E4F345D022B4FEAC12198BF04F1ED
:10562000FF3601F4C05C57F8231096BFF6B22E4641
:10563000B60021F4CB5110F0800F18BF4FF48075E5
:1056400021F01C01B2F5806F1C4641EA0C0107EB0A
:10565000830EC0F0A88070224FF0010831430D4343
:105660002A4347F82320010708FA03F7BEB21BD4E8
:1056700008229C465649534FFB6908FA02F0034240
:1056800002F1FF32D5B209D0FB69064323EA0000DC
:10569000F8610868B6B220F0020008606545A1F123
:1056A0000401E9D863463746DFF8289103EB430647
:1056B0007546DFF8108109EBC606DBB2039729E0D7
:1056C0002A68D20556D456E90372BA1A46F80C2C49
:1056D000D5F800C056F8147C1CF4807F18BF43F046
:1056E0008000714456F8103C09EBC101097D9B1AFA
:1056F0003A4456F8187CC1F340010097364FB8473A
:1057000000284AD00134E3B2092B05F1040506F163
:10571000180653D0039A18462241D207F2D5611ECB
:1057200001EB410C09EBCC0C9CF814A00122D346F0
:105730006FF3000B8CF814B0D5F800B0A2404BF01A
:10574000020BC5F800B0D8F81CB00AF0010A42EA12
:105750000B02C8F81C202A6B4FEA410E57030CD5E8
:105760002A6842F400722A60BAF1000FCAD05A1EA9
:10577000052AA5D856F80C2CAAE7DCF8003063B14E
:105780002A687144D40548BF40F0800009EBC10984
:105790000246D9F80C1001209847002005B0BDE85A
:1057A000F08F00207047082A38BF08225200013AC3
:1057B000B2FA82F2C2F11C0212014DE7012005B0DB
:1057C000BDE8F08F00C00A40A4DA080000C10A401A
:1057D00020C10A40E4220720B154080000F00F0263
:1057E00002F1FF3C5FFA8CF3052B70B519D94FF429
:1057F0008053022501242049204E9340736141F8D3
:10580000225041F822401D494B6101061BD4BDE8DE
:1058100070401B480CEB4C0C01211A4B00EBCC00E8
:1058200018474FF0007400254FF480531649134E6B
:1058300001EB021104FA0CF474618D600F4993407E
:105840004B610106E3D5114B950003EB820E53F833
:10585000223013F4405FDAD04FF400540C480D4965
:105860002844294404600B689B04FCD4DEF8003013
:1058700013F4405FF6D1CAE720C20A4000C00A40D4
:10588000E4220720814B080000C30A4030C10A40CF
:10589000F0C10A40C0C10A402DE9F04FB14B83B0BE
:1058A000984728B9B04B5B6813F0010300F0B8804B
:1058B000AD4A53685F0700F1A080536813F00203FC
:1058C00040F0A7805168CE0423D508211020C2F8EB
:1058D0002002C2F82012D2F830114D0700F1818168
:1058E000D2F83011CC0704D5D2F8C021D00700F18E
:1058F0002C839D4AD2F83011890700F12182D2F819
:1059000030110F0700F14982D2F83011CD0600F1B5
:105910009B81964E0121354634464FF0040E4FF0E0
:1059200000794FF4805A924F924ADFF83C8229E086
:105930000AFA01FCD8F810B01BEA0C0F14D0D7F803
:1059400000B01BF0010F05D0D2F800B01BF0010F22
:1059500040F0A8833868C00406D5106810F4405F92
:10596000C0F3013B00F0AF830133082B0EF1040EAE
:1059700002F1040207F1040704F1180401F1010126
:1059800000F0A580D8F810B009FA03FC1BEA0C0F50
:10599000C8B205D0D8F804B01CEA0B0F40F016834B
:1059A000052BC5D9D8F810B00AFA01FC1BEA0C0F78
:1059B000C0D0D2F800B01BF0020F05D0D7F800B06D
:1059C0001BF0020F40F05681D2F800B01BF0010F1F
:1059D0002ED1D2F800B01BF0200F09D1D2F800B0C0
:1059E0001BF0040F04D1D2F800B01BF0400FA1D07F
:1059F000614B03B0BDE8F04F184704239360D2F821
:105A0000043813F4405F5FD05C4B03B0BDE8F04F47
:105A1000184702215A4B916003B0BDE8F04F184778
:105A200072B6BFF35F8F574A137003B0BDE8F08FB3
:105A3000D7F800B01BF0010FCBD00827524A03EB78
:105A400043085EF8022005EBC808C2F30212D8F83A
:105A50000C909740D8F808205E00914505D398F83F
:105A6000142012F0020200F0FE830124474AF018CD
:105A700005EBC0004EF80240D0E90224121BBA42E6
:105A800028BF3A461646426822443444C0E90346D9
:105A9000002E00F007843E48C9030844941912F808
:105AA000011BA24200F8011FF9D14FF48041394A8D
:105AB000B7424EF80210B8D9182202FB03531A7DE0
:105AC0006FF341021A75B0E72D4B98479CE72649C2
:105AD0004A6812F0080240F0C5810B69DF071ED545
