:0200000280007C
:10000000584807206539080061390800613908003F
:1000100061390800613908006139080000000000FA
:10002000000000000000000000000000613908002E
:1000300061390800000000006139080061390800DA
:100040006139080061390800613908006139080028
:100050006139080061390800613908006139080018
:1000600061390800613908000000000055330800BC
:100070006533080075330800853308000000000070
:1000800000000000A91C0800B91C08006139080024
:1000900061390800613908006139080061390800D8
:1000A000613908000000000061390800613908006A
:1000B000A10F0800613908006139080061390800A2
:1000C00061390800613908006139080061390800A8
:1000D0006139080061390800613908006139080098
:1000E0005549080061390800613908006139080084
:1000F0006139080010B5054C237833B9044B13B1AE
:100100000448AFF300800123237010BDE0140720E2
:100110000000000084CF080008B5034B1BB1034961
:100120000348AFF3008008BD00000000E41407207E
:1001300084CF08000023436003608360704700BFE2
:1001400010B404680134C82C28BF002400E042B178
:100150004368A342FBD0036803441973046010BCD6
:100160007047836810BC013383607047436801683F
:10017000024699421844007B05D00133C82B28BFA2
:10018000002353607047FF20704700BF036840683A
:10019000C01A18BF0120704703684068181A48BF8A
:1001A000C830704710B5054A054B10689847BDE840
:1001B0001040044A044B1068184700BFC0010720D4
:1001C00049370800CC01072065370800014A024B77
:1001D00010681847C001072065370800014A024B24
:1001E00010681847C0010720493708002DE9F84F6B
:1001F000082600240546DFF864B0194FDFF8648054
:10020000DFF864A0DFF8649008E0C0473868C847AA
:100210006D006400013EEDB2E4B210D0144BDBF887
:100220000000984703463868002B18BF44F00104CB
:10023000C0472B06DAF80000E7D5C847E6E7DBF849
:1002400000000B4B98470346002B18BF44F00104F5
:10025000386864B2C047E0B2BDE8F88FC401072037
:10026000CC01072065370800C8010720493708007E
:100270002D370800704700BF70B505464FF020517C
:1002800031204F4CA047002D44D04FF080513620F4
:10029000A0474FF000610A20A0474FF000610B20FB
:1002A000A0474FF000610C20A0474FF000610D20E7
:1002B000A04744494220A04742494420A047414921
:1002C0004520A0473F494620A0473E494720A04738
:1002D0003C494820A0473B494920A0473A491D20B6
:1002E000A04739490620A0474FF060513320A0476E
:1002F0003320364B98474FF040515720A0474FF0DE
:1003000060513320A0472346BDE870404FF0205194
:10031000312018474FF020513620A0474FF0205190
:100320000A20A0474FF020510B20A0474FF020514A
:100330000C20A0474FF020510D20A0474FF0205136
:100340004220A0474FF020514320A0474FF02051BA
:100350004420A0474FF020514520A0474FF02051A6
:100360004620A0474FF020514720A0474FF0205192
:100370004820A0474FF020514920A0474FF020517E
:100380001D20A0474FF020515220A0474FF0205190
:100390000620A0474FF020515720A0474FF0205192
:1003A0003320A0474FF020511920A0474FF0205193
:1003B0001A20A0474FF020511B20A047A3E700BF01
:1003C000A5370800010000080100001049370800A7
:1003D00030B50C4D85B029460B4C1120A04729465D
:1003E0001220A0474CF250320021084CCDE90221E6
:1003F000074B162001949847064B01A906489847D9
:1004000005B030BD01000008A537080000BD01059A
:1004100099350800993A080000C008402DE9F047D6
:100420004FF00108424E0B20B0470C20B0470D2082
:10043000B0470E20B047DFF8FC900020C8473E4B85
:1004400098473E4C4FF020513A20A0474FF0605162
:100450000320A0474FF040510020A0474FF06051CB
:100460000120A047364B83F80080BFF35F8F62B650
:100470000025344B344A83F805801D705D709D70F3
:10048000DD701D719047314B9847314F314B984784
:100490000920B047294638462F4A304B984729460D
:1004A00038462F4A2F4B9847294638464FF00C12B2
:1004B0002D4B98472946384603222C4B9847042257
:1004C0002B4B28461A642B4B98472B4B98472820D8
:1004D000B0474FF080513920A047284B9847284B10
:1004E0004B209847274B9847274B9847274B9847CF
:1004F0004046C847264B9847264B98474FF06051D7
:100500003B20A047244B98474FF060511320A04751
:100510004FF060511420A0474FF060511520A047C4
:100520002346BDE8F0474FF020514F20184700BF49
:100530009935080079020800CD090800A5370800A0
:10054000040B072008330720E5330800AD540800EA
:1005500000000E40D10308000203020341320800EC
:10056000060206064D3208005932080065320800BE
:1005700000060E40B935080085350800350E080024
:10058000890E0800E92D0800890A0800350B0800CB
:10059000751108001D0F0800ED0D080000232DE95E
:1005A000F0474FF0007EDFF8949086B04C46244A26
:1005B0000193D2F804A0DFF88CC0CDF804A0DDF8D8
:1005C00004A0214ECDF804A002A8C2F854E01021E6
:1005D00005468CF800301D4FB0471D4E0DF1180830
:1005E00055F8042B20463146B847454504F1080428
:1005F000F6D10022174B89F820209847164B9847D0
:10060000164B9847164B9847164B4FF00108164E5D
:10061000164D174C174F9847B047A8472378002B23
:10062000FAD14FF41670B8470028F5D04FF47A701D
:10063000B8470028F0D084F80080EDE7D00107200B
:10064000001A0E4033210720352F08009D5F080057
:10065000F8CA08001D040800E11A0800A51F0800D8
:10066000FD2A0800C1080800C1220800D90E0800B0
:1006700032210720A52D08000D4AD388918999427F
:1006800014D3023BDBB2022B10D810B49468094893
:100690002246247801460474501C034412F8010FCA
:1006A0009A4201F8010BF9D110BC7047704700BFA6
:1006B0008C220720F40107200D4A5378413B032B7D
:1006C00013D8DFE803F00E0A06020A4B012013617B
:1006D0007047094B012013617047084B01201361DB
:1006E0007047074B0120136170470020704700BF1F
:1006F0008C22072005070800790608006508080015
:10070000411B080038B50E4BDA889989914207D30E
:100710000C4C217801F0FF0519B101220A4B1A7027
:1007200038BD0A499B68CA6001228B600848094BA2
:1007300022709847044BC0B21870257038BD00BFB6
:100740008C220720332107209C1C0720F40107205E
:1007500000C00840C93B08002DE9F047374C6378DA
:10076000413B032B67D8DFE803F041341B02DFF87D
:10077000D080344FE388344E98F80020C7E90263F4
:1007800002F0FF09002A35D001223049701E1344BF
:1007900006F8012C0A70A060A3811046BDE8F0871E
:1007A000284F2A4B2A4E1A787D683B7C3270737032
:1007B000002D3ED00023581CF95CF218C3B2AB42A6
:1007C0009170F8D30235ADB20120A660A581BDE8D5
:1007D000F0871B4B1B7803F0FF06EBB101231C4A8B
:1007E00018461370A260A381BDE8F087194BBDE8DD
:1007F000F04718470125184B3946184888F800502B
:100800009847FB6806F8019C2B44013E284688F86F
:100810000090A660A381DAE70B4D114B2946A07822
:10082000984702236A1E012005F8016CA260A3818B
:10083000CDE70225C8E70020C9E700BF8C220720CA
:1008400033210720F4010720191A07209C1C0720D8
:10085000181A072051200800F13A080000C008408B
:10086000E109080038B50B4C23781BB101220A4B73
:100870001A7038BD012103F0FF05084B21709A68FA
:10088000987892F90010064B9847034B25701D701D
:1008900038BD00BF332107209C1C07208C22072075
:1008A000310A0800704700BF704700BFC0F308005E
:1008B00000B170470320014B184700BF8137080083
:1008C00010B5044B04489847BDE810400348044B5A
:1008D000184700BF1918080059070800B906080092
:1008E0004118080010B54FF4C8124FF020510A48C3
:1008F0000A4CA047B0F5C81F05D0094A1378013348
:10090000DBB2137010BD4FF400624FF02051054868
:10091000A0470028F1D010BD00120E40E1360800BB
:10092000FD14072000100E4038B54FF400024FF0C0
:1009300020510D480D4B984758B904460C4D3B20AB
:100940000C4B2C7098470C4B2046984701232B707A
:1009500038BD3B20094B9847074B012098470022A0
:10096000034B1A7038BD00BF00100E40E13608007E
:10097000FC14072065370800790208004937080091
:100980000B2800D07047B1F5803FFBD10A4670B507
:100990004FF020510848094B9847044600B170BDFC
:1009A0000126074D3B20074B2E7098472046064BEB
:1009B00098472E7070BD00BF000E0E40E136080053
:1009C000FC140720653708007902080008B54FF0CD
:1009D0004051024B04209847002008BDA53708006D
:1009E00030B54FF0000C01234FF0180E0D4C87B0BE
:1009F00022788DF805C08DF806C003918DF814E0BB
:100A00008DF80400029304934AB902F0FF050648EA
:100A1000064A01A923709047257007B030BD4FF0FA
:100A2000FF30FAE73321072000C00840F13A080000
:100A300030B54FF0000C01234FF0180E89B00F4C69
:100A40000DF10702059222788DF80DC08DF80EC0C9
:100A50008DF81CE08DF807108DF80C0004930693B8
:100A60004AB902F0FF050648064A03A923709047D9
:100A7000257009B030BD4FF0FF30FAE73321072071
:100A800000C00840C93B08002DE9F0430D2083B0A9
:100A90001F4D204CDFF88090A047204F0C20A0472E
:100AA000DFF87C804A464FF4C8112846C0471D4CE9
:100AB00050234FF4C8121C4E0D2128460097B04712
:100AC00028464FF4C811194DA8474A464FF4006113
:100AD0002046C04750234FF400620C212046009767
:100AE000B0474FF400612046A8474FF40052104B26
:100AF000C3F88020BFF34F8FBFF36F8F902100208A
:100B0000C3F8802183F80D131A6003B0BDE8F083A9
:100B100000120E40993508000A000028E508080078
:100B20009D38080000100E40CD3208002137080023
:100B300000E100E02DE9F043072001260A21002210
:100B40004FF0180889B03D4F0DF10B0305933B782A
:100B500004968DF80B00ADF80C108DF80E2006965B
:100B60008DF81C80002B66D13548DFF8D89003A99A
:100B700003F0FF053E70C8473D70044618B120469B
:100B800009B0BDE8F0830DF10B03CDE904638DF8E6
:100B90001C800D234FF050083A788DF80E00069611
:100BA000ADF80C308DF80B8002F0FF05002A42D121
:100BB000234803A93E70C8473D7004460028DED193
:100BC000214D4FF020511720A847204A434600925C
:100BD000DFF87C804FF400020B211E48C0471E4FF7
:100BE0004FF400011B48B8471C493720A8471C4B4D
:100BF0004FF4000200930C2123461A48C0474FF4DB
:100C000000011848B8474FF480524FF40061204665
:100C10003446154B19601A604FF04051A8474FF009
:100C200060513046A8474FF040513B20A84720462E
:100C300009B0BDE8F0834FF0FF34A0E7332107206F
:100C400000C00840C93B0800A5370800810908001A
:100C5000CD320800000E0E40213708000B0000289E
:100C60002909080000100E4000E100E0F0B518224C
:100C70000125002487B0494E0DF103030393337817
:100C8000ADF804508DF803408DF8064002950495A8
:100C90008DF81420002B40D103F0FF074048414B52
:100CA00001A9357098479DF903403770002C34D066
:100CB000402C64DC362C41DD3B4A28463B4B127805
:100CC000984738463A4B9847322CA8BF3224232CF9
:100CD000B8BF23246420233C64B200FB04F43549EC
:100CE0004FF42472A1FB0414E408632C28BF63248E
:100CF000041B02FB04F4304BA3FB04346409002101
:100D00004FF424722D482E4B9847224600212B4841
:100D10002C4B9847002007B0F0BD2846244B98473D
:100D20002046224B98474FF42472C4F1640402FB1E
:100D300004F4214BA3FB04346409E0E7322CA8BF80
:100D40003224232CB8BF232464212846A4F1230590
:100D50006DB201FB05F5174B154AA3FB053490470F
:100D6000124B3846984740F28153E408632CA5F1B2
:100D70000F0528BF63249D42D5D82024BFE70B4E22
:100D80003B20B0473846104B9847074B28461D700C
:100D90001D70B0473846064B984795E7332107202A
:100DA00000C00840F13A0800FC140720653708002D
:100DB00049370800898888881F85EB510000084062
:100DC000AD5D0800A55D08007902080008B5054B77
:100DD0001B780BB9002008BD0020034B984700206A
:100DE00008BD00BFFC1407208137080008B53B2070
:100DF000044B9847044B012098470022034B1A707C
:100E000008BD00BF4937080079020800FC1407201C
:100E100008B53B20044B9847044B0020984701221B
:100E2000034B1A7008BD00BF65370800790208003F
:100E3000FC14072010B50E4C0E4B1B209847204683
:100E40004FF41C2200210C4B984720464FF424728B
:100E500000210A4B98474FF4A47220460021084B0A
:100E6000984720460021074B9847002010BD00BF3F
:100E700000000840993508007D5D0800AD5D080060
:100E8000A55D08009D5D080070B50C4D04464FF44B
:100E90002472284600210A4B98474FF4247CC4F161
:100EA00064020CFB02F2074E2846A6FB0242002118
:100EB000054B52099847002070BD00BF0000084054
:100EC000AD5D08001F85EB51A55D08000020014BBA
:100ED00018707047FD14072038B53A200C4CA04715
:100EE000003818BF01200B4D2B78984200D138BD37
:100EF0003A20A04748B10120074B98473A20A04725
:100F0000003818BF0120287038BD034B9847F5E71B
:100F10002D370800080207207902080038B54FF085
:100F20008055164C164B1C20984720464FF44042E3
:100F30000121144B9847144A20460121134B98472E
:100F400020460121124B984701212046114B98471A
:100F5000114BC3F88050BFF34F8FBFF36F8F4FF02B
:100F6000800CC3F88051204683F81CC31022012155
:100F70000A4C1D60A047002038BD00BF000008409B
:100F8000993508007D5D0800A037A000AD5D080020
:100F90009D5D0800BD5D080000E100E0B55D080052
:100FA000012110B50C480D4B9847C10600D410BD67
:100FB0000B4C0C4B984723680133236023685A0776
:100FC00006D023681B07F2D1BDE81040064B184736
:100FD000064B9847F5E700BF00000840BD5D0800DC
:100FE00000150720CD0D0800CD0E08006D0C08007F
:100FF000024A034B508800F07F0018478C220720DC
:10100000F1420800154B1B681B681A79824222D9ED
:1010100030B4134C2360B3F802C09C44634517D22C
:10102000002504E01A78012513449C450CD95A7810
:10103000042AF7D19A788242F4D1DA788A42F1D13F
:1010400005B12360012001E00020236030BC70471F
:10105000002030BC70470020704700BF0C150720EF
:10106000101507202DE9F0411C4C23787BB300219B
:101070001B4E0546B04750B3DFF86880D8F8003003
:101080005B6853F82570FB68984723780146F3B1F5
:101090002846B0470546D0B1134B144E1C68D8F80B
:1010A0000020237812681C4453881A44A24206D8B0
:1010B00008E0052B0FD023781C44A24202D96378A4
:1010C000042BF6D17B6898472846BDE8F0810025BF
:1010D0002846BDE8F081A078B047E0E70915072071
:1010E000051008000C1507201015072055430800AF
:1010F000184B1B785BB32DE9F041174B0546984719
:1011000010B3164B164E1C68164F316823780A68C8
:101110001C4453881A44A24206D808E0052B0DD07F
:1011200023781C44A24202D96378042BF6D14B6881
:1011300053F82530BDE8F0411B681847A288E178D4
:10114000A078B8470028E0D10020BDE8F081002059
:10115000704700BF0915072005100800101507206B
:101160000C150720A1460800014B1868704700BF06
:1011700010150720004B18474D400800F8B50C4FDC
:101180003B787BB10B4D2B681B681B7953B1002456
:101190002046094EB0472B6801341B68E0B21B792A
:1011A0008342F7D80023054A3B701380F8BD00BF87
:1011B000091507200C1507206510080004150720E5
:1011C00038B50C4B1B789BB10B4D2B681A68127904
:1011D00072B1002422465B68013453F822301B6947
:1011E00003B198472B68E2B2196809799142F2D8A5
:1011F00038BD00BF091507200C15072000232DE975
:10120000F0478B4C2288C4E90433B2F5E07FA38118
:1012100000F0D08094F900202378002A0EDB13F030
:10122000600F79D013F01E0F40D003F01F03022B84
:1012300000F0B68000252846BDE8F087E588002D3F
:10124000F8D013F0600FEDD113F01F0200F06581AC
:10125000012A40F0BA8062780A2A24D1012D22D1D5
:10126000744A1278FAB1744A267917683A68127982
:10127000B24218D900213046704B984705460028E5
:1012800000F0C6807B6853F82630DB68984702463A
:101290006B4801216B4B02709847CCE7012A00F0A4
:1012A0004D81022A6CD013F01E0FC3D1A388614E6A
:1012B000022B04BF0123A3803378002BBAD05E4FEA
:1012C00094F804803D682B681B79984540D32278B8
:1012D00002F01F02022AADD1002BABD00024A046A1
:1012E000DFF858916B68013453F82850EB68984741
:1012F00033780146002B9DD040465FFA84F8C847FA
:10130000002897D0AB689847002837D13D682B68F4
:101310001B794345E6D88DE713F01F02BED16278F2
:10132000013A082ABFD801A151F822F0151408008B
:10133000A7120800F1130800A71208000B150800F7
:10134000A7120800A7120800A71208005D140800E1
:1013500000214046394FB847002834D06B6853F815
:101360002850EB68984733780146002B3FF462AF72
:101370004046B84738B3AB68984720B301255AE7D1
:101380006278012A00F0F780032A06D1E28861889A
:101390000A4392B2002A00F0C18113F01E0F85D0DB
:1013A000244E3378002B3FF445AF234F3D682B6824
:1013B0001B7991E701254FF4A5712348214B9847EC
:1013C0002846BDE8F08723782FE7022A7FF46BAF29
:1013D0006278002AE1D1022DDFD120791B4B98479A
:1013E00002461B482946174B01250280984722E7F1
:1013F000E288002A7FF457AF6288022A7FF453AF55
:10140000144B9847054618B12379002B00F0BB8197
:10141000237807E7E288002A7FF445AF6588012D2D
:101420007FF441AF0C4A138823F00203138002E7D4
:101430008C220720091507200C150720051008002D
:10144000081507204943080030020720AD43080073
:1014500006150720DD42080004150720E288002A4F
:101460007FF421AF9C4B98470028D1D0DFF86C92D5
:10147000C847DFF86CA2A378002800F02581DAF8CD
:101480000820527C9A42C3D3964E337883B1964F4C
:101490003B681B681B795BB100252846DFF84C824E
:1014A000C0473B6801351B68E8B21B798342F7D817
:1014B00000228F4B1A80A3783370002B3FF45EAF6D
:1014C000C8473278002800F03381DAF8103002F192
:1014D0000052013A03EBC2031A68834F12793B6052
:1014E000002A3FF44BAF0025824E2B4605E03A68B8
:1014F000126812799A427FF641AF18460021B04730
:101500000135EBB20028F2D182E7E288002A7FF4AD
:10151000CAAE794B012523618DE66278062A40D058
:10152000082A36D0002A7FF4BEAE022D7FF4BBAE6F
:1015300029466F48714B984701257CE662780B2A53
:101540007FF4B1AEE288002A7FF4ADAE654A12782E
:10155000002A3FF4A8AE2579644B28466688984750
:1015600000283FF455AF2846624BF1B29847002857
:101570007FF404AF4CE7E28861880A4392B2002A04
:101580007FF40BAF20795E4B984700287FF4F6AECE
:101590003EE7012D7FF487AE29465248574B9847C6
:1015A00049E661880A0A013ACDB20E2A3FF63AAE00
:1015B00001A151F822F000BF6D1608004316080083
:1015C00081160800251208002512080037160800A9
:1015D0000D16080025120800251208002512080023
:1015E00025120800251208002512080025120800FF
:1015F000F515080021214348404B9847E388A2890C
:101600009A427FF6BBAE0125A38114E6334B98477F
:10161000334B002840F094809A68527CAA427FF6AF
:10162000F7AE1A69354B52F83500418898470722C2
:10163000A3685A70E2E72A4A304BD068017898478D
:10164000DCE7264B9847264B002800F090809A68EC
:10165000527CAA427FF6DCAE1A69284B52F835005C
:10166000418898470222A3685A70C7E71B4B9847E6
:10167000002871D11A4A214B906801789847BDE73C
:10168000032D3FF6CFADDFE805F01A171402202135
:101690001D4B1E4E5D18324613F8010BAB4222F86B
:1016A000020FF9D1490002311848144B31709847A4
:1016B000A4E72021164BECE71521164BE9E704219E
:1016C00015480E4B984799E7DAF80020527C9A4269
:1016D000BFF4DAAE9CE600BF19430800DD42080003
:1016E00060090720091507200C1507206510080060
:1016F00004150720F1100800F10F08004943080005
:10170000AD4408000C020720D00107207C0307200D
:10171000DC030720C4030720C00307202079324BD5
:1017200098472079314B984700287FF427AE6FE621
:10173000DAF8043002F10052013A03EBC203CBE6BF
:101740001A68527CAA427FF663AE5A68284B52F858
:101750003500418898476AE710200221254B244D27
:101760001A689070D17018680178A84746E71A681F
:10177000527CAA427FF64CAE5A681D4B52F8350097
:10178000418898476EE71C4E327892B11B4F3A68F9
:10179000126812796AB199461846DFF86480C0472A
:1017A0003B6809F101091B685FFA89F01B798342E4
:1017B000F5D80022A38813491B0A013B0A80327026
:1017C000032B3FF625AEDFE803F00B0805020E4BB6
:1017D000236130E50D4B23612DE50D4B23612AE597
:1017E0000C4B236127E500BF99480800C14308005E
:1017F0004943080060090720091507200C15072038
:10180000651008000415072009540800F553080066
:10181000D9530800BD53080007490A780F2A01D997
:1018200000207047034610B4501C044C087044F864
:101830002230012010BC7047D419072094190720CA
:1018400007490A780F2A01D900207047034610B4CF
:10185000501C044C087044F82230012010BC704722
:10186000D5190720D8190720004B1847A5080800EC
:10187000004B1847A9080800054B1B7803B97047AF
:1018800010B5044B9847BDE81040034B184700BF04
:10189000FD03072029430800AD08080038B50124DE
:1018A000044D4FF48061044A044B05482C7098475E
:1018B000204638BDFD030720C12508007536080005
:1018C000941507200022014B1A707047FD03072072
:1018D00038B50F4B0F4AD9880F48802928BF80217F
:1018E0001278986099818AB10C4C551EEDB2531B49
:1018F000251F05EB830504EB820401E0AC4205D013
:1019000054F8043D98470028F8D038BD002038BD71
:101910008C220720D519072014150720D819072075
:1019200038B50B4B1A788AB10A4C551EEDB2531BD1
:10193000251F05EB830504EB820401E0AC4205D0D2
:1019400054F8043D98470028F8D038BD002038BD31
:10195000D419072094190720044B5A78222A03BF70
:10196000034A01201A610020704700BF8C22072023
:101970007519080010B5284B5A88D3B2013B122BB9
:101980000ED8DFE803F00E1B200D0D0D0D0D0D0D13
:101990000D0D0D0D0D3441450A0000221F4B1A801C
:1019A00010BD3E2100201E4B98471E4CA04700282A
:1019B000FCD0BDE8104010201B4B18471020BDE89C
:1019C00010401A4B18471A4B984701220C21194B0B
:1019D00019489847194B9847194A53689903FCD4FA
:1019E000136843F0254343F005031360FEE7134BF0
:1019F0009847134A53689B03FCD4136843F025436C
:101A000043F005031360FEE70E4BBDE81040184796
:101A10000D4B120A1A7010BD8C220720981A07204D
:101A200005350800553508004D340800A934080074
:101A3000110E080095360800000A0E406D4208009D
:101A4000001A0E40512B08009A1A072038B51C4C7A
:101A50006378222B05D0402B1AD0172B0DD00020F5
:101A600038BD032217481849184B00880978188098
:101A700099700120A360A28138BD40F201250021A8
:101A80000322124B01201D809970A360A28138BDF2
:101A90004FF0200C0D4D0E4B372293E8030085F8D4
:101AA00008C085E803000B4B0B4905F10900984776
:101AB00028460A4BA560984703460120A38138BDFC
:101AC0008C220720981A07209A1A0720181A072034
:101AD0000CCB08003D60080000CB0800E15F080067
:101AE00010B5044B04489847BDE810400348044B28
:101AF000184700BF191808004D1A080059190800A6
:101B0000411808000A4A53781B2B05D0312B0BD003
:101B10001A2B05D000207047064B01201361704737
:101B2000054B012013617047044B0120136170477E
:101B30008C220720E51E0800491F0800411B0800F1
:101B4000002330B4114A124DB2F802C0114C33B127
:101B5000012B18D00133042BF9D130BC7047294632
:101B60004CFA03F212F0010206D091F89C2242F0E6
:101B7000080281F89C22EDE791F89C0262F3C30011
:101B800081F89C02E6E72146EAE700BF8C220720A5
:101B900000040720A006072010B5D0F8983213B132
:101BA000012B16D010BD164B11209847154C4FF045
:101BB00000610A20A0474FF000610B20A0474FF4BE
:101BC00000323021104BC3F8802183F811131A60C2
:101BD00010BD0B4B122098470A4C4FF000610C20AF
:101BE000A0474FF000610D20A0474FF48022302124
:101BF000054BC3F8802183F812131A6010BD00BF93
:101C000099350800A537080000E100E02DE9F04112
:101C10001E4B044600689847C107054603D4AB072E
:101C200018D4BDE8F081204650F81C3B00229E6984
:101C3000174FF6B23146B84794F89C325A071FD472
:101C4000636A002BEBD0134A138843F0010313801F
:101C5000AB07E6D504F1F00528460F4B984748B18D
:101C600028460E4B246898470D4B01462046BDE898
:101C7000F041184720680221BDE8F041094B1847A0
:101C80000022314604F5E270B847D9E74531080033
:101C900041010800981A07208D0108006D01080015
:101CA000493108003D3108000148024B184700BF88
:101CB000000407200D1C08000148024B184700BF14
:101CC000A00607200D1C080070B5214B5888020A99
:101CD00003D0012A3AD0002070BD1E4CC0B2142897
:101CE00007D018281BD0A0F11000B0FA80F04009EE
:101CF00070BDDA88032AEED90421174D174A04F182
:101D00001C009D609981904700210646144A61623B
:101D10001388012023F0010313802E6070BDDA8840
:101D2000032AD8D904210C4D0C4A04F1F0009D601F
:101D30009981904700210646094AC4F8F810138893
:101D4000012023F0020313802E6070BD054CC5E70F
:101D50008C22072000040720181A07209901080088
:101D6000981A0720A006072038B5012A04469DF8D6
:101D7000105041600ED0022A08D000220261013BBF
:101D8000032B48D8DFE803F0323A3D0A4FF4005203
:101D90000261F4E74FF480520261F0E74FF4806390
:101DA000E360062D27D0072D32D0052D2DD0C0237E
:101DB000A360002220466261194B984794F89C3238
:101DC000184D43F0020384F89C3204F1F000A84758
:101DD00004F11C00A84704F5E270A8472146124A06
:101DE000124B51F8040B9847012038BD4FF4007393
:101DF000062DE360D7D14023A360DAE70023E36038
:101E0000CFE74FF4C063E360CBE70023A360D0E7E4
:101E10008023A360CDE74FF40063E360C1E700BF18
:101E2000991B08003501080000BD0105DD2F0800E1
:101E300070B5214C82B063881A0A03D0012A38D0C9
:101E400002B070BD1D4DDBB2112B15D0122B23D06B
:101E5000102BF5D1E388072BF2D1A2682846184B46
:101E600016689847A0683146437902798079154C05
:101E700000902846A047E3E72846114B984728687A
:101E8000114B98472868114B984701212868104B3F
:101E900002B0BDE87040184728680E4B9847286884
:101EA0000D4B9847032128680C4B02B0BDE87040E9
:101EB00018470B4DC7E700BF8C22072000040720FE
:101EC000991B0800691D0800293108001931080014
:101ED0003931080031310800213108003D31080056
:101EE000A0060720004B1847311E080070B50446B5
:101EF00000F1F005002228460D4B984720680D4B55
:101F00009847820700D570BD0B4B20689847830720
:101F100005D420680221BDE87040084B18472846C8
:101F2000074B25689847074B014628469847F0E736
:101F300041010800413108004531080039310800ED
:101F40006D01080049310800F8B5114D6B881B0A76
:101F50001CD0012B00D0F8BD0E4EEB88AA899A4206
:101F6000F9D34BB100240C4FAB683046195DB8472C
:101F7000EB880134A342F7DCD6F8F830002BEAD026
:101F8000064A138843F002031380F8BD044EE4E7C9
:101F90008C220720A0060720ED1E0800981A0720B3
:101FA000000407202DE9F0410024204F204E214D50
:101FB000E3B264B1012B36D00134042CF8D11E4BAE
:101FC0001E489847BDE8F0411D481E4B18471E4B60
:101FD000D3F89832A3B1012BEED11220B8474FF0BD
:101FE00000610C20B0474FF000610D20B0474FF466
:101FF00080233022C5F8803185F812232B60DBE77F
:102000001120B8474FF000610A20B0474FF000613F
:102010000B20B0474FF400333022C5F8803185F8EB
:1020200011232B60C8E7094BD2E700BF99350800A0
:10203000A537080000E100E0191808009D200800FD
:10204000051B08004118080000040720A00607200F
:1020500000B50E4A4FF0000ED1880D48042928BF64
:1020600004210C4B90F89CC293F89C020A4BCCF3D1
:10207000C00CC0F3C000587083F800C09360A3F890
:1020800002E0918101205DF804FB00BF8C22072053
:1020900000040720A0060720181A07202DE9F047A2
:1020A0001D4D6B781B2B06D0312B2AD01A2B06D056
:1020B0000020BDE8F087194BBDE8F04718476B8852
:1020C0001B0A26D0012BF3D1154EEB88802B9946A5
:1020D00028BF4FF08009C3B1DFF84880DFF848A07F
:1020E00044461C3608EB09073046D04704F8010B7C
:1020F000A742F9D10120C5F80880A5F80C90BDE8E9
:10210000F0870A4BBDE8F04718479946DFF814807E
:10211000F0E7074ED9E700BF8C220720C91C080052
:10212000A0060720181A07206D010800512008009A
:102130000004072050B101280AD1094B93F89C22D2
:10214000012042F0040283F89C227047054BF5E71A
:10215000002292F89C3262F3820382F89C32FFDE06
:10216000A00607200004072060B101280CD10A4B0B
:10217000002093F89C2209496FF3820283F89C2285
:1021800008707047064BF3E7002292F89C3262F326
:10219000820382F89C32FFDEA00607209B1A0720EC
:1021A000000407202DE9F84F814688B3012831D17A
:1021B0001C4F012197F89C321B4A03F00603062BA3
:1021C000117001D0BDE8F88F4846DFF860A0D04715
:1021D00005460028F6D0DFF858B0164EDFF85880D4
:1021E000B5F5007F28BF4FF40075314648462A46B2
:1021F0000024D847315D01343846A4B2C047AC4210
:10220000F8D34846D04705460028E9D1BDE8F88F05
:102210000A4FCEE701210023034A117093F89C3244
:10222000FFDE00BFA00607209B1A0720A55A080062
:10223000F55A08009C1A0720ED1E0800000407202C
:1022400030B583B040B3012828D1164C94F89C32A5
:102250005A0702D54B79042B01D903B030BD0023B6
:102260008A792046053A9201D2B209680E4D009251
:102270001A46A8470D4B20689847C307EDD420683D
:102280000B4B984720680B4B9847012120680A4B5D
:1022900003B0BDE830401847084CD7E7002393F857
:1022A0009C32FFDEA0060720691D080041310800AE
:1022B00029310800193108003931080000040720CD
:1022C0002DE9F84F00250124DFF860A0184FDFF852
:1022D0006490DFF86480EEB24DB1012E23D0042C5F
:1022E0001FD001340135E4B2EEB2002DF5D1DFF894
:1022F0004CB09BF89C3203F00603062BF1D130461C
:10230000D0470028EBD00BF5E27B04E05846C847E5
:1023100001463046C0475846B8470028F6D1042C3D
:10232000DFD1BDE8F88FDFF818B0E2E7BD5B080049
:102330008D0108006D010800315C080000040720D1
:10234000A00607200020294A294953780870103B2D
:10235000252B18D8DFE803F01D212529172D31176B
:102360001717171717171717171713171717171701
:1023700017171717171717173539173D411993787E
:10238000043B0B2B2DD9002070471A4B0120136101
:102390007047194B012013617047184B01201361DE
:1023A0007047174B012013617047164B01201361D2
:1023B0007047154B012013617047144B01201361C6
:1023C0007047134B012013617047124B01201361BA
:1023D0007047114B012013617047104B01201361AE
:1023E00070470F4B01201361704700BF8C220720FC
:1023F0009D1C0720A1290800B92408009924080081
:102400002524080051240800E9240800F1270800C9
:10241000A12A080061270800212A08009528080041
:102420004128080038B5064B064A5C6805201D683F
:102430009047054A054B04F1C04414601D6038BD47
:1024400014150720212B0800A81C0720AC1C07200E
:102450002DE9F0410D4F01203C680D4E7D68B047DD
:1024600074B107EB040CEC1F0A4DFB1DE41B0CF1CF
:10247000070CE21813F8010F296863458854F8D156
:102480003346BDE8F0410020184700BF141507206F
:10249000212B08004409072008B50420034B984766
:1024A000034A044B52681A6008BD00BF212B080084
:1024B00014150720A01C072070B5074B0220D3E994
:1024C0000054064B9847294604F1C040044A054B86
:1024D000BDE87040184700BF14150720212B0800E5
:1024E000CD270800553608002DE9F04F2C4983B060
:1024F000D1E90023043A8E6804D02A480C311844EC
:10250000294B9847F30722D5264B370CD3F8008088
:102510001DD00024C6F34003244DDFF894A0DFF85B
:102520009490DFF894B00193C6F380060120A84789
:10253000019B7BB90EBB0020A8475720D047322013
:10254000C847013457201D4B9847BC42EED103B019
:10255000BDE8F08F4FF4A062DBF800004FEA186C82
:1025600000F802C008FB08F0013240F00500B2F5A7
:10257000A26F8044F0D1002EDDD04FF4C062DBF8B2
:1025800000004FEA186C00F802C008FB08F00132A6
:1025900040F00500B2F5C26F8044F0D1CBE700BF38
:1025A00014150720F01C07200D5E0800212B0800E1
:1025B00049370800B501072044090720653708009E
:1025C00070B5A8B9174B1B78D3B969B1164B174E24
:1025D00017481944026813F801CB3468551C994216
:1025E000056004F802C0F5D1124B9847042814D0B6
:1025F000BDE870404FF480610F4A0B480F4B1847FD
:102600000A2BF5D10029F3D0074D0D4E6C1815F8A3
:10261000010BB047A542FAD1EAE70A4B00209847E0
:10262000E6E700BF9D1C07209415072044090720FA
:10263000A01C07205D2B0800C12508007536080086
:10264000D92B0800212B080070B53A4C6378123B57
:10265000232B13D8DFE803F01C12122612121212D9
:10266000121212121212121212121212121212124A
:102670001212121212123E4A12586014002070BD3B
:10268000E388402BFAD82C4A0120A260A38170BDB8
:1026900000222A4B2A49186809681A60A081A160A3
:1026A000012070BD274E3120B0470346003B18BFC4
:1026B0000123254D32202B70B047002103465B1AC1
:1026C0004FF0040218BF01230120A5606980A28198
:1026D0006B7070BD02221D481D491B4B00780978A4
:1026E000187059700120A360A28170BD0321194B9D
:1026F00019481A88144B00785A70120A18709A7088
:102700000120A360A18170BDE388402BB6D8134A95
:102710000120A260A38170BDA0780A4B9847031ED8
:1027200018BF01230121084A08461370A260A18145
:1027300070BD00BF8C220720F0200720AC1C0720B2
:10274000A81C07202D370800181A0720A51C0720F1
:10275000A41C07204009072030210720B01C0720B7
:1027600038B5164BD9889A898A4215D39A68137856
:1027700092F801C0907883EA0C0383F0AE0398428C
:1027800007D1022916D91488A4F51673B3F5167F5C
:1027900003D901220A4B1A7038BD0322084D204686
:1027A000084B2A7098470028F6D00223064A2B705F
:1027B000148038BD0422024B1A7038BD8C220720C9
:1027C00030210720A52D08004009072000B17047DF
:1027D00010B5054B04469847022800D010BD20468E
:1027E000BDE81040014B18475D2B0800212B080065
:1027F0000D4A5388A12B04D0A22B11D0A02B07D0B7
:1028000070470A4B10B598470A22094B1A7010BD41
:10281000D388042B0ABF074B07481868074B184793
:102820000022034B1A7070478C220720CD2B080022
:102830009D1C072014150720002D3101692B08006D
:102840000F4B9B78052B04D0062B0CD0042B05D006
:1028500070474FF0805136200A4B18474FF04051D7
:102860003620084B184710B55720074B9847FA20D9
:10287000064B9847BDE810405720054B184700BF4E
:102880008C220720A537080049370800B50107202A
:10289000653708003A4BDA88022A00D0704770B5D5
:1028A0009A6814785F2C07D85B885278A12B13D0D4
:1028B000A22B17D0A02B00D070BD013A122A0BD842
:1028C000DFE802F0493A0A0A0A0A0A0A0A0A0A0A68
:1028D0000A0A0A412F2419002046BDE87040002151
:1028E000284B1847002A3DD0012AE5D12046BDE8F3
:1028F0007040254B1847254E306800283BDA214DA3
:102900004FF060512046A847346070BD204E3068BB
:1029100000281CDA1B4D4FF040512046A847346078
:1029200070BD1C4E3068002821DA164D4FF0205142
:102930002046A847346070BD2046BDE870404FF087
:102940006051104B1847144E30680028E2DB00211C
:102950000C4DA847DFE72046BDE870404FF02051FE
:10296000084B18472046BDE870400C4B1847002123
:10297000044DA847DAE70021024DA847C0E700BF91
:102980008C220720A537080049370800C00107201E
:10299000CC010720C4010720C801072065370800C3
:1029A0002DE9F041174C6388A03B042B17D8DFE8D2
:1029B00003F0181C20240300E388A2899A420ED356
:1029C000013B3F2B0BD800250F4E104FA368585DDD
:1029D000B847E38801359D4206F8010BF6DBBDE8F8
:1029E000F0810B4BBDE8F04118470A4BBDE8F041C0
:1029F0001847094BBDE8F0411847084BBDE8F041C6
:102A0000184700BF8C220720F0200720ED010800A6
:102A1000A501080075020800CD010800DD010800CD
:102A20002DE9F041174C6388A03B042B17D8DFE851
:102A300003F0181C20240300E388A2899A420ED3D5
:102A4000013B3F2B0BD800250F4E104FA368585D5C
:102A5000B847E38801359D4206F8010BF6DBBDE877
:102A6000F0810B4BBDE8F04118470A4BBDE8F0413F
:102A70001847094BBDE8F0411847084BBDE8F04145
:102A8000184700BF8C220720B01C0720412C0800EB
:102A9000E92B0800AD2C0800292C0800352C080073
:102AA000114BDA889989914216D3022A10B50FD9B1
:102AB00003219B680D4C1A78217072B1012A08D14C
:102AC000997858780A4B984708B10223237010BDB3
:102AD000064C0123237010BD704758780549064BFA
:102AE00098470028F3D0F0E78C220720A51C072088
:102AF0007D2E0800A41C0720DD2E080010B5044B15
:102B000004489847BDE810400348044B184700BFED
:102B10001918080049260800452308004118080034
:102B200038B5084B04469847074B1A782AB901254F
:102B30001C70064B9847284638BD0025034B984724
:102B4000284638BDB154080031210720F15408004F
:102B50000022014B1A70704731210720014B187871
:102B6000704700BF3121072070B5114B84B0044677
:102B7000332098470023C0210E4D0F4A1320CDE982
:102B80000041CDE9023390470C4A0D4B6946284677
:102B900098470C4E4FF000613420B0474FF0006171
:102BA0003820B0472846084B984704B070BD00BF96
:102BB0006537080000000A409935080000BD01058E
:102BC0004D300800A5370800193108003320014BAB
:102BD000184700BF493708000146014B0148184714
:102BE0004931080000000A4010B54FF040510B4C2D
:102BF0003820A0474FF040515520A0474FF02051BA
:102C00003420A0474FF060515620A0475620044B77
:102C10009847BDE810403820024B1847A5370800F8
:102C200049370800653708005620014B184700BF98
:102C3000653708005620014B184700BF4937080088
:102C40002DE9F843082600240546DFF85490154F77
:102C5000DFF8548008E0B8473820C0476D006400B2
:102C6000013EEDB2E4B20ED03420C847034638200E
:102C7000002B18BF44F00104B8472B064FF0550055
:102C8000E9D5C047E8E73420C8470346002B18BF02
:102C900044F00104382064B2B847E0B2BDE8F883DC
:102CA0002D370800653708004937080010B50021A6
:102CB000054C3820A04700215520A0472346BDE8F9
:102CC0001040002156201847A53708002DE9F04193
:102CD000012434272D4BA0F51670A3FB0030C20849
:102CE000C0F3C31343EA02135340DAB2C3F38503BC
:102CF0005340274A83EA53038CB01668C0F3C700D9
:102D0000DB0758BF60F07F000DF106038DF8060069
:102D100004932048204B4FEA164802A9ADF80860FA
:102D20008DF80A80039405948DF81870984705462D
:102D300030B100231846194A13700CB0BDE8F08179
:102D40000DF1070309931348154B07A9ADF81C6053
:102D50008DF81E8008940A948DF82C7098470346CD
:102D600068B99DF806209DF8071091420BBF2046D8
:102D700018460A4A094A13700CB0BDE8F08128468B
:102D8000064B1D700CB0BDE8F08100BFCDCCCCCCA3
:102D900018CB080000C00840C93B080033210720B9
:102DA000F13A08000E4A1178B9B900B54FF0010E9A
:102DB00001F0FF0CA0F51671B1F5966F82F800E0F6
:102DC00006D8B0F5966F03D8064B5DF804EB1847AC
:102DD00082F800C000205DF804FB0020704700BFAF
:102DE00033210720CD2C080070B54CF250326925F4
:102DF0008AB01C49CDE903251B4B16200291984748
:102E00001A4B1B4802A9984700201A4C8DF807005E
:102E100023780BB10AB070BD03F0FF0680220123B6
:102E2000059623708DF81420069308930DF1070280
:102E3000114B0F4805A9099607928DF82450984721
:102E4000034618B1304626700AB070BD9DF80700E1
:102E5000237000F00F00A0F10100B0FA80F04009EB
:102E60000AB070BD00BD010599350800993A080007
:102E700000C0084033210720F13A080070B5144D16
:102E800088B02B788DF8071013B1002008B070BD02
:102E90000124692203F0FF0660F07F000DF10703B3
:102EA000039605938DF80C000A4B0B4803A907966F
:102EB0002C70049406948DF81C209847034618B98A
:102EC00020462B7008B070BD30462E7008B070BD23
:102ED00033210720C93B080000C0084070B5124DDF
:102EE00086B02B7813B1002006B070BD0124692292
:102EF00003F0FF0660F07F000C4B0391019601A9DF
:102F00008DF804000A4805962C70029404948DF8FC
:102F100014209847034618B920462B7006B070BDA0
:102F200030462E7006B070BD33210720F13A0800FC
:102F300000C00840F0B5042687B004460D460F22B5
:102F40000E210C480C4F02AB0096B84770B9042D07
:102F500026462A46044628BF042225B13046074BA0
:102F600002A992009847204607B0F0BD10242046E1
:102F700007B0F0BD000A0E40110107200D5E0800E9
:102F8000B2EB011F84464FEA011012D3430803EB52
:102F9000C202B2FBF0F24FF6FE71D308581E88420F
:102FA00013D8120402F4E0221A430020CCF82020A7
:102FB0007047C9004B0803EBC202B2FBF1F24FF6B7
:102FC000FE71D308581E884201D901207047DCF8F1
:102FD000041041F40021CCF80410E2E72DE9F84395
:102FE0004FF4807C00234FF088084FF0240E4FF4FC
:102FF0000027DFF84C90134EC0F8E4903360436034
:1030000043628362C0F80080C0F800E0C0F800C0EE
:10301000076091B10D460C4B09680446984760B9AA
:10302000D5E9013213432A691343EA6813436268FE
:10303000336013436360BDE8F8830120BDE8F88383
:103040000041535538210720812F08002DE9F04118
:103050004FF0240C00244FF0880E4FF480774FF48B
:103060000026DFF8AC802B4DC0F8E4802C60446073
:1030700044628462C0F800E0C0F800C007600660E7
:10308000F1B10346886803281AD8086802EB500299
:10309000B2FBF0F24FF6FB70141F844210D81A6294
:1030A0004A68D1E9020442EA040141F4802242F074
:1030B0000E022A6003280DD8DFE800F005201A125E
:1030C0000120BDE8F08121F4803242F4802242F4F4
:1030D00087722A60596800200A435A60BDE8F0816F
:1030E00021F4807242F4A02242F00E022A60F1E73D
:1030F00041F4A02242F487722A60EBE721F4803287
:1031000022F4807242F4802242F00E022A60E1E74B
:10311000004153553421072040230360704700BF0E
:1031200080230360704700BF10230360704700BF17
:1031300020230360704700BF81607047C160704703
:10314000006970474069704743699B07FCD5C1F32C
:103150000801C16100207047314A136B03F003037B
:10316000012B2CD0023B012B1ED8136AD90138D574
:103170002C482D4B03602A4A136B03F00303022BE8
:103180003CD02A4B26490A6B02F07002702A05D007
:103190000A6BC2F30212D34003607047244AA2FBB9
:1031A00003235B0803607047224B1E485B6A13F0E1
:1031B000800F14BF4FF400434FF4FA43E2E7136A61
:1031C000DB010BD4126A02F07002102A21D0164BD8
:1031D00019491448202A18BF0B46D3E7124B11484F
:1031E000D0E7154B0F480360136A03F07003102BF0
:1031F00012D0202BBFD10C4B0360BCE7916A03684F
:10320000C1F30A4101FB0333926AD2B2B3FBF2F37A
:10321000B8E70A4B0348B5E7084B0360ABE700BFCC
:1032200000060E4048090720001BB700001C4E0E88
:10323000ABAAAAAA001A0E4000093D0000127A00AB
:1032400001EB810100EB81010A67704701EB81010D
:1032500000EB81014A67704701EB810100EB8101BE
:103260008A67704701EB810100EB8101C1F8802082
:10327000704700BFF8B5124B04460E469847114BF5
:10328000054620469847054019D00F4C04F16007C9
:103290002368B34205D0BC4211D023691034B34235
:1032A000F9D161682942F6D0E368304698476368EF
:1032B000BC4225EA030502D01034002DE8D1F8BD48
:1032C00025370800293708003C2107202DE9F8435D
:1032D0001D4F3E68062E28D80D4611461A461B4B38
:1032E0004FF0000E9C4606F1010804E076450CF113
:1032F000100C1DD0A646DCF800900EF10104A94583
:10330000F4D1DCF804908945F0D1089E03EB0E144B
:10331000C4E90112E660F0454FEA0E141D510FD0CA
:103320000B4B98470020BDE8F8830120BDE8F883E7
:1033300003EB061436019D51C4E90112089BE360BA
:10334000C7F80080ECE700BFAC2107203C21072034
:10335000F93608000B210148014B1847000E0E40BA
:10336000753208000C210148014B184700100E402F
:10337000753208000D210148014B184700120E401C
:10338000753208000E210148014B184700140E4009
:1033900075320800013802281AD8DAB12DE9F04157
:1033A0000D4614460C4FDFF83480561C01E0013CFA
:1033B0000BD03868D8F8003015F8011B9847002862
:1033C000A6EB0402F3DA4FF0FF321046BDE8F081BD
:1033D0004FF0FF3210467047B4210720B02107207C
:1033E000704700BF70B50F480F4DA8473E21002021
:1033F0000E4B98470E4CA0470028FCD00D4B984729
:103400000D4B0E4A0E4C9A62A0470028FCD00D4B83
:10341000102098470C4B98472B46BDE87040014858
:10342000184700BF00BD01058D00072005350800C5
:10343000553508006535080000060E40013F0D2097
:1034400075350800A93408005931080015490B6B7F
:1034500023F0030343F001030B638B6E1B0758BF7C
:103460004FF4006302D504E0013B16D08A6E1207C8
:10347000FAD50C490B6B23F0700303430B63886E82
:1034800010F0080008BF4FF4006302D007E0013BD2
:1034900003D08A6E1207FAD57047012070470020CA
:1034A000704700BF00060E4015490B6B23F07003F8
:1034B00003430B638B6E1B0758BF4FF4006302D5A9
:1034C00004E0013B17D08A6E1007FAD50C490B6B4C
:1034D00023F0030343F002030B63886E10F008002F
:1034E00008BF4FF4006302D007E0013B03D08A6EAF
:1034F0001207FAD57047012070470020704700BFBF
:1035000000060E4038B11049104A086A104B0240BC
:1035100013430B6270470C4A0902106A8BB220F405
:103520005C1121F003010B4343F45C1343F00103EE
:103530001362936EDB07FCD5136A43F09B7343F46D
:1035400080331362704700BF00060E40FCFFC8FEC8
:1035500002003701024B986E00F48030704700BFC4
:1035600000060E404FF00052014B9A62704700BFB8
:1035700000060E40024B986E00F00200704700BF3C
:1035800000060E404FF44413024AD361936E5B066B
:10359000FCD5704700060E400246064B02F07F0243
:1035A000C3F80C21D3F80C21002042F01022C3F8FC
:1035B0000C21704700060E404FF48073014A83408F
:1035C0001360704700060E40034BC0F312001A6FE1
:1035D00010431867704700BF00060E40014B187873
:1035E000704700BFB8210720024B1B7803B170471A
:1035F000014B1847B8210720C5180800084B93F95C
:1036000000201B78002A03F0600303DB402B05D069
:1036100000207047402BFBD1024B1847024B184744
:103620008C22072021190800D1180800064B10B57C
:103630009847064AC37813700BB1012010BD044BA4
:10364000BDE81040184700BF69110800B8210720E5
:103650009D18080030B58446154683B00B46624677
:103660000021034C00958120A04703B030BD00BF6E
:103670006D45080030B58446154683B00B4662465A
:103680000021034C00950220A04703B030BD00BFCD
:103690006D45080038B5A1F10E03012B17D9EFF3E2
:1036A000108572B6BFF35F8F00230A4CC9B2237036
:1036B000094B03EA02221143084B41F0B4419847F9
:1036C00025B901232370BFF35F8F62B638BD4FF079
:1036D000FF3038BD040B072000FFFF009D010720CD
:1036E00021F00061B1F1405F0CBF836BC36B1342EB
:1036F00014BF012000207047D3060ED59306C0F8F2
:10370000B0104CBFC0F8D410C0F8D01053064CBF56
:10371000C0F8C010C0F8C4107047C0F8B4107047AB
:1037200001647047C06C7047806C7047430903F5B3
:10373000001303F207735B02DB6B00F01F0023FA38
:1037400000F000F0010070470122430903F5001367
:1037500003F2077300F01F005B0202FA00F0186327
:10376000704700BF0122430903F5001303F20773FA
:1037700000F01F005B0202FA00F05863704700BFC0
:103780000122430903F5001303F207735B02996BEF
:1037900000F01F0002FA00F0014214BF58631863E2
:1037A000704700BF430903F5001301F0F04203F234
:1037B0000773B2F1205F4FEA432335D010B416D817
:1037C000B2F1006F1BD0B2F1805F15D14FF0010C48
:1037D00000F01F000CFA00F25A64186F10431867CB
:1037E00011EA0C005A601BD05A6610BC704701F0F9
:1037F000E042B2F1405F2FD0002010BC70474FF084
:10380000010C00F01F000CFA00F25A64186F1C6FD4
:10381000204020EA0200186711EA0C005A60E3D148
:103820001A66604610BC7047012200F01F008240FB
:10383000C8075A644CBF5A661A6611F00A0F14BFC3
:103840001A625A62880722D4080748BFC3F8842046
:1038500001205A611A607047012200F01F00824067
:1038600001F0605CC1F38004C9075A644CBF5A661A
:103870001A6654B95A65BCF1605F0CBF1A635A638B
:103880001A611A60012010BC70471A65F3E7C3F88B
:10389000802001205A611A60704700BF034602F081
:1038A000F040B0F1205F29D010B410D8B0F1006F13
:1038B00015D0B0F1805F0FD15964186F08431867B5
:1038C00012F00100596015D0596610BC704702F023
:1038D000E040B0F1405F25D0002010BC7047596433
:1038E000186F1C6F204020EA0100186712F00100D9
:1038F0005960E9D11966012010BC7047D00759649E
:103900004CBF5966196612F00A0F14BF196259624A
:1039100090071ED4100748BFC3F8841001205961D6
:103920001960704702F06050C2F38004D2075964F6
:103930004CBF5966196654B95965B0F1605F0CBF48
:103940001963596319611960012010BC704719652A
:10395000F3E7C3F88010012059611960704700BF78
:10396000FEE700BF1749184808B5814209D0174A39
:10397000904206D2013A121A22F00302144B04328A
:1039800098471448144A904207D2013A121A22F07A
:1039900003020021114B04329847114B114923F0C7
:1039A000604203F1604322F07F02B3F5801F8A601A
:1039B00003D28B6843F000538B600B4B98470B4B43
:1039C0009847FEE784CF080000000720E014072096
:1039D0000D5E0800E014072058330720F95E080048
:1039E0000000080000ED00E0C55D08009D0508002E
:1039F000264B99422BD910B4254C264B0C44A100E0
:103A0000B2FBF1F1A3FB02239B0B043BFF2B4FF016
:103A10000002A1F1040135D95B08FF2B02F101027C
:103A200010D9072AF8D14FF4E0220902DBB289B29B
:103A300013430B43036110BC00207047072AF2D0E8
:103A400049080132FF2998BF1204F7D8EDE74B006F
:103A5000B2FBF3F3043BFF2B4FF0000208D95B08E5
:103A6000FF2B02F101020BD9072AF8D14FF4E02213
:103A7000D9B21B020A439BB2134303610020704773
:103A80001204F5E7FF29DBD8CFE700BF00DC050013
:103A90000012FD7FF1197605F8B54FF0FF3E4FF0AB
:103AA000800C0827202604220D46C0F828E0016A71
:103AB000C0F800C0016B0760066002600A4B6968CD
:103AC000044699420DD82A68084B9847A0F1010096
:103AD000B0FA80F040096B7A012B04BF40232360C9
:103AE000F8BD0120F7E700BF801A0600F139080091
:103AF0008446C868002861D070B400258C68CCF872
:103B000004500B7C4A681B04120202F4407203F456
:103B1000FE03134343F48053CCF80430CCF80C502C
:103B20004A68002A3AD0012A0B7802DD0B885BBA7A
:103B30009BB2022A02DD8A7842EA03230128CCF8EC
:103B40000C300BBF032301230546002541F28832C8
:103B50000226CCF80030DCF82030D90513D4511EF1
:103B600072B301281CD09B0721D52346DCF83020F6
:103B7000013803F8012B09D041F288321C46DCF8E9
:103B80002030D905EBD5052070BC7047DCF820301B
:103B9000DA07FBD570BCDCF8203070471346CDE760
:103BA0000DB9CCF800609B0705D50125DDE723465C
:103BB0000A461C46E3E70A460125CCE70120704788
:103BC000092070BC704700BFCA68002A3CD030B4DE
:103BD0000346002588685D600C7CD1F804C024048D
:103BE0004FEA0C2C04F4FE040CF4407C44EA0C0470
:103BF0005C60DD604D682DB3012D0C7802DD0C8812
:103C000064BAA4B2022D02DD897841EA0424DC60A2
:103C1000811807E01A6AD40511D4550744BF10F87B
:103C2000012B5A638842F5D141F2893103E05407F0
:103C30000CD4013911D01A6A12F48070F7D0052023
:103C400030BC70472C46E2E70120704702221A6020
:103C50001A6AD207FCD530BC70470920F0E700BFD4
:103C6000024B187880F00100704700BFB92107208F
:103C70000C4A034610680C4930B103448B42CCBF58
:103C80004FF0FF301360704710B4084C23448B4250
:103C90001460D8BF13602046C8BF4FF0FF3010BC7F
:103CA000704700BFBC210720FC7F08205848072030
:103CB0004FF0FF30704700BF4FF4005300204B60BF
:103CC000704700BF012070470020704700BEFEE72C
:103CD000704700BF4FF0FF30704700BF90F814C02E
:103CE00003461CF0010F14D010B404686FF3000CED
:103CF00080F814C05CB10846064951F82210C90585
:103D000048BF42F080029968234610BC184710BC97
:103D10007047704700C10A402DE9F0415E4D00F147
:103D2000FF3E0EEB4E0305EBC303197DCA077CD59E
:103D3000D3E90241A14202464FEA4E004CD0641A38
:103D4000B4F5803F18D8554F260457F822C01CF40C
:103D5000807F6CD057F82270C7F3021C082707FA3F
:103D60000CF7013F274200F093801F7D46F02906A3
:103D70006FF341071F7509E0484B53F82240E405F3
:103D80005ED521264FF4803453F8223000EB0E0C20
:103D900005EBCC0CDCF804301944414B03EB021367
:103DA0005960EFF3108772B6BFF35F8F4FF00008D2
:103DB0003C4981F80080D3F80C8018F0100F49D0EE
:103DC00027B901230B70BFF35F8F62B600EB0E03C0
:103DD00005EBC303D9689960304B910053F822304A
:103DE000DF0506D500EB0E0305EBC3031B7D9E0725
:103DF00007D4704405EBC0000021BDE8F0412A4B18
:103E000018470123294C2A480B510858294CC5034F
:103E100048BF29484FF0010548BF0B504FF480536D
:103E2000264803FA02F20D518261BDE8F08157F88D
:103E30002230C3F3C123012B22D046F03506A5E77B
:103E400053F82240C4F3C124012C9AD035264FF4F4
:103E500080349BE74FF000709E60DCF80C30CCF8AB
:103E600010401C44154B00FA0EF0CCF80C40986141
:103E7000002FDAD101230B70BFF35F8F62B6D4E756
:103E8000082357F82270C7F30217BB40A342D4D2CD
:103E900046F021067AE700BFCC21072000C10A4086
:103EA00000C30A40040B0720DD3C080060C10A4043
:103EB00030C10A40F0C10A4090C10A4000C00A4027
:103EC0002DE9F047EFF3108272B6BFF35F8F002049
:103ED0000123564D56492870C1F820321AB92B706B
:103EE000BFF35F8F62B6DFF84C8198F80030032B88
:103EF0005CD0514F514E3A88B489A41AA4B2002C18
:103F000032D01346DFF838913F2C86BF0022402480
:103F1000012289F80020B268EFF3108672B6BFF371
:103F20005F8F002129704249D1F83011890732D4BE
:103F300054B11A44434B1846013312F801CBD9B29D
:103F4000A14280F800C0F6D33B88394A1C440123C3
:103F50003C80C2F86031C2F8F0311EB92B70BFF35B
:103F60005F8F62B6BDE8F0873749F0880B8813444D
:103F70009BB298420B803CD0DFF8C49099F800A027
:103F8000BAF1000F35D1736983B39847002848D13F
:103F900001223B88BDE726B901232B70BFF35F8F59
:103FA00062B6042388F80030BDE8F087234E3369F9
:103FB00003B19847EFF3108272B6BFF35F8F002012
:103FC00001231B492870C1F820321AB92B70BFF3A6
:103FD0005F8F62B600230221154AC2F86011C6E95C
:103FE0000433B38188F80030BDE8F087134601221E
:103FF0008FE7042388F80030EFF3108172B6BFF327
:104000005F8F102200200A4B2870C3F86021C3F88C
:10401000F0210029A6D101232B70BFF35F8F62B678
:10402000A0E73C805346B4896EE700BF040B07202D
:1040300000C00A40C8210720C42107208C22072085
:10404000C021072000001820C621072038B5EFF353
:10405000108572B6BFF35F8F0022504C504B282062
:10406000227098474F4B98474FF0500C4FF4807197
:104070004D4B4E4A83F828C34FF480205960904737
:104080004B4BD3F8002822F08072C3F80028D3F8F5
:10409000002842F00072C3F80028D3F8002822F06C
:1040A0008072C3F80028D3F8002842F48052C3F885
:1040B0000028D3F8002842F40042C3F800281A6808
:1040C00022F480521A601A6822F440621A60D3F80F
:1040D000002822F48042C3F80028D3F804285004B2
:1040E000FBD50023334803EB430200EBC202117DF2
:1040F000013321F00501082B1175F4D102222C4B5C
:10410000C3F80828D3F80418090548BFC3F80C28D9
:10411000274B2949D3F8002842F00202C3F80028AF
:10412000D3F8002842F48042C3F800280B78ABB9DA
:104130000120224A08701370EFF3108172B6BFF3AA
:104140005F8F1F4A2370D3780344D37061B125B9C0
:1041500001232370BFF35F8F62B638BD174B1A7807
:104160003AB900221A70F2E72070BFF35F8F62B68F
:10417000EDE7EFF3108072B6BFF35F8F4FF0000CE6
:104180000F498A78013A8A7084F800C00028E8D183
:1041900001222270BFF35F8F62B6E2E7040B0720B3
:1041A00099350800E133080000E100E0C935080056
:1041B00000C00A40CC210720C2210720C1210720CE
:1041C00008330720F0B4EFF3108672B6BFF35F8FA9
:1041D0000021224A224D1378297063B30121214B1B
:1041E0001170D3F8002822F48042C3F80028D3F8D5
:1041F00004285204FBD51A68082722F480721A603A
:1042000001211022042402209F6199619A619C611E
:1042100098619F609C609860D9609A60D3F800288C
:1042200042F48042C3F800281EB92970BFF35F8FA3
:1042300062B6F0BC7047EFF3108072B6BFF35F8FC9
:1042400009492B708B7801338B700028C6D101236C
:104250002B70BFF35F8F62B6C0E700BFC12107209C
:10426000040B072000C00A4008330720174B1849E9
:10427000D3F8002822F48042C3F800281A6842F4D8
:1042800080721A60D3F8002842F48042C3F80028F4
:104290000B7813B900230B70704710B4EFF3108440
:1042A00072B6BFF35F8F4FF0000C0A4A0A4893784A
:1042B000013B937080F800C024B901230370BFF361
:1042C0005F8F62B600230B7010BC704700C00A40BD
:1042D000C121072008330720040B0720034BD3F824
:1042E000040810F4405018BF0120704700C00A4075
:1042F000084B00F07F001A6822F080021A601A68EA
:1043000022F07F0202431A601A6842F080021A60AB
:10431000704700BF00C00A40024B186800F07F00E1
:10432000704700BF00C00A40024B186AC0F3CA00C1
:10433000704700BF00C00A40024B186AC0F30D006E
:10434000704700BF00C00A40014B986099817047D8
:104350008C22072000F00F02082A00D970470121A3
:10436000F8B50E4F01FA02FCFB690D4D23EA0C0370
:10437000FB6155F82230501E0A4C00EB400004EB64
:10438000C00423F0020345F822302046064EB04711
:10439000237D6FF382032375F8BD00BF00C00A4080
:1043A00000C10A40CC210720DD3C0800034B00F08F
:1043B0000F0053F82000C0F3C0407047C0C10A404E
:1043C00000F00F03082B34D82F4A52F82320110392
:1043D00031D42E495A1E02EB420201EBC20C9CF86A
:1043E000141011F0040226D111F0010121D1F0B412
:1043F000EFF3108572B6BFF35F8F254C0206217074
:104400001BD42449402051F8232022F4007241F8A3
:1044100023204FF40021204A42F82300903242F832
:1044200023106DBB01202070BFF35F8F62B6F0BC1C
:1044300070470020704701207047184A52F8232027
:1044400012F4405FDDD001209CF81420144942F0A2
:1044500004028CF814204FF480520E4E41F82300D1
:1044600056F82310DFF83CC00F4F41F4007146F8B6
:1044700023104CF8232002FA03F3BB61002DD2D0A5
:10448000F0BC0120704700BFC0C10A40CC2107200A
:10449000040B072000C10A4060C10A4030C10A4035
:1044A00020C20A40F0C10A4000C00A4000F00F00DC
:1044B00008284BD8F8B5411E254C01EB410204EB0E
:1044C000C202157D4B006D0724D54FF48055167D33
:1044D000204F6FF38206DFF880E01675DFF87CC0AE
:1044E00047F820508540CEF8145007EB8006820034
:1044F0005CF82000070315D40B4404EBC302117DC4
:10450000DB00C80704D56FF30001E3581175984725
:104510000120F8BD114D820055F820000003F7D5A9
:104520000C4E16440E481058450606D540274FF449
:1045300080250C481750903015504FF400200A4D3C
:104540003060505940F400705051D5E7002070475A
:10455000CC21072020C20A4000C00A40C0C10A4046
:1045600030C10A4060C10A4000C10A402DE9F84F3D
:1045700000F00F00434D082855F8208074D801261C
:10458000414C06FA00F7E46927426DD03F4C54F8DD
:104590002040240368D400F1FF3C3D4F0CEB4C0E4F
:1045A00007EBCE0E9EF814400CFA06FA14F0040B3A
:1045B0005AD1EFF3108472B6BFF35F8FDFF8D49057
:1045C00089F800B09EF814B01BF0010F4BD19EF893
:1045D00014B04BF0010B8EF814B024B989F80060C8
:1045E000BFF35F8F62B60026DDF828E00AEB0C040B
:1045F00047F834E007EBC404C4E90123C4E90366C7
:1046000011B9B3FA83F14909E24407EBCA073B7DCC
:104610005FFA8CFC61F34103BCF1050F3B7526D9B1
:10462000EFF3108272B6BFF35F8F00214FF4805317
:1046300089F800101449834018F4807F8B6114BFFF
:104640000121022155F8203023F4007345F8203071
:10465000114B43F8201001203AB989F80000BFF34C
:104660005F8F62B601E034B10020BDE8F88F0B4BDC
:1046700098470120F9E789F80060BFF35F8F62B6C1
:104680002046F2E700C10A4000C00A40C0C10A400B
:10469000CC210720040B0720F0C10A40193D080077
:1046A00000F00F03082B00F2DA802DE9F04F744C74
:1046B00085B0E56901249C40254040F0CC8001F0A4
:1046C0000304013CE4B2022C00F2C5806D4E6E4F33
:1046D000345D022B4FEAC12198BF04F1FF3601F48B
:1046E000C05C57F8231096BFF6B22E46B60021F4F0
:1046F000CB5110F0800F18BF4FF4807521F01C01D2
:10470000B2F5806F1C4641EA0C0107EB830EC0F046
:10471000A88070224FF0010831430D432A4347F827
:104720002320010708FA03F7BEB21BD408229C46D7
:104730005649534FFB6908FA02F0034202F1FF3277
:10474000D5B209D0FB69064323EA0000F861086886
:10475000B6B220F0020008606545A1F10401E9D875
:1047600063463746DFF8289103EB43067546DFF8CA
:10477000108109EBC606DBB2039729E02A68D2054F
:1047800056D456E90372BA1A46F80C2CD5F800C074
:1047900056F8147C1CF4807F18BF43F080007144ED
:1047A00056F8103C09EBC101097D9B1A3A4456F8B2
:1047B000187CC1F340010097364FB84700284AD013
:1047C0000134E3B2092B05F1040506F1180653D0B4
:1047D000039A18462241D207F2D5611E01EB410C23
:1047E00009EBCC0C9CF814A00122D3466FF3000B0C
:1047F0008CF814B0D5F800B0A2404BF0020BC5F80D
:1048000000B0D8F81CB00AF0010A42EA0B02C8F85E
:104810001C202A6B4FEA410E57030CD52A6842F43C
:1048200000722A60BAF1000FCAD05A1E052AA5D814
:1048300056F80C2CAAE7DCF8003063B12A68714402
:10484000D40548BF40F0800009EBC1090246D9F801
:104850000C1001209847002005B0BDE8F08F002023
:104860007047082A38BF08225200013AB2FA82F291
:10487000C2F11C0212014DE7012005B0BDE8F08F26
:1048800000C00A4054CB080000C10A4020C10A40C1
:10489000CC2107206D45080000F00F0202F1FF3C1B
:1048A0005FFA8CF3052B70B519D94FF480530225AC
:1048B00001242049204E9340736141F8225041F871
:1048C00022401D494B6101061BD4BDE870401B48C6
:1048D0000CEB4C0C01211A4B00EBCC0018474FF0AD
:1048E000007400254FF480531649134E01EB02115A
:1048F00004FA0CF474618D600F4993404B6101061A
:10490000E3D5114B950003EB820E53F8223013F4DC
:10491000405FDAD04FF400540C480D492844294434
:1049200004600B689B04FCD4DEF8003013F4405F95
:10493000F6D1CAE720C20A4000C00A40CC210720B5
:10494000DD3C080000C30A4030C10A40F0C10A4003
:10495000C0C10A402DE9F04FB14B83B0984728B948
:10496000B04B5B6813F0010300F0B880AD4A5368A8
:104970005F0700F1A080536813F0020340F0A780A6
:104980005168CE0423D508211020C2F82002C2F8B5
:104990002012D2F830114D0700F18181D2F8301188
:1049A000CC0704D5D2F8C021D00700F12C839D4A52
:1049B000D2F83011890700F12182D2F830110F07A7
:1049C00000F14982D2F83011CD0600F19B81964E5C
:1049D0000121354634464FF0040E4FF000794FF474
:1049E000805A924F924ADFF83C8229E00AFA01FC91
:1049F000D8F810B01BEA0C0F14D0D7F800B01BF099
:104A0000010F05D0D2F800B01BF0010F40F0A883D1
:104A10003868C00406D5106810F4405FC0F3013B4D
:104A200000F0AF830133082B0EF1040E02F10402F3
:104A300007F1040704F1180401F1010100F0A58059
:104A4000D8F810B009FA03FC1BEA0C0FC8B205D065
:104A5000D8F804B01CEA0B0F40F01683052BC5D91B
:104A6000D8F810B00AFA01FC1BEA0C0FC0D0D2F83B
:104A700000B01BF0020F05D0D7F800B01BF0020FFA
:104A800040F05681D2F800B01BF0010F2ED1D2F8C1
:104A900000B01BF0200F09D1D2F800B01BF0040FBA
:104AA00004D1D2F800B01BF0400FA1D0614B03B08D
:104AB000BDE8F04F184704239360D2F8043813F48C
:104AC000405F5FD05C4B03B0BDE8F04F1847022158
:104AD0005A4B916003B0BDE8F04F184772B6BFF370
:104AE0005F8F574A137003B0BDE8F08FD7F800B05E
:104AF0001BF0010FCBD00827524A03EB43085EF8A6
:104B0000022005EBC808C2F30212D8F80C909740B7
:104B1000D8F808205E00914505D398F8142012F0CB
:104B2000020200F0FE830124474AF01805EBC000A2
:104B30004EF80240D0E90224121BBA4228BF3A467E
:104B40001646426822443444C0E90346002E00F071
:104B500007843E48C9030844941912F8011BA24275
:104B600000F8011FF9D14FF48041394AB7424EF89D
:104B70000210B8D9182202FB03531A7D6FF34102C9
:104B80001A75B0E72D4B98479CE726494A6812F002
:104B9000080240F0C5810B69DF071ED54B68DE07B0
:104BA0001BD510200124D1F8003823F48043C1F82C
:104BB00000384C618861D1F80008264B40F48040F1
:104BC000C1F800081978002940F042830021224AE8
:104BD000197003B0BDE8F04F1047124B1A69D506A3
:104BE0003ED55A68D4063BD5D3F8002822F480423B
:104BF000C3F8002802E05A68D00703D4D3F8042889
:104C00005104F8D510200121064A124B50619161E0
:104C10001A78002A00F0D7820121104AD8E700BF95
:104C2000613C080000C00A40CC210720C4C10A40F2
:104C300034C10A409948080079180800C1110800D9
:104C4000040B072000C10A4060C10A40FFFF172083
:104C500020C20A40C1210720691808007118080005
:104C6000A04BD3F8042892077FF53DAF0221D3F87B
:104C7000002822F48042C3F80028C3F80818D3F8AB
:104C8000002842F48042C3F80028D3F804381B05FA
:104C900040F1F581944B03B0BDE8F04F1847934DB8
:104CA0002B78EBB1924C236903B19847EFF3108155
:104CB00072B6BFF35F8F002001228E4B18708948B7
:104CC000C0F8202219B91A70BFF35F8F62B60023B3
:104CD0000221844AC2F86011C4E90433A3812B7015
:104CE000804AD2F83031C3F30A53082B00F0C18058
:104CF00005204FF4002104232870C2F8F011C2F8F7
:104D00006031F0E61023C2F86031D2F8303113F090
:104D100002037FF4E8AE75480178012900F0AB8208
:104D200004297FF4E0AE4FF40023C2F8F031DAE654
:104D30004FF0020B4FF008086F4EDFF8C0A15EF88D
:104D4000066003EB4307C6F3021605EBC70708FA34
:104D500006F8D7E902697F684EF80AB01268A6EB38
:104D6000090BC2F30A5AD0454FEA430600F2BB8250
:104D7000D34500F2FB824FF000084FF0180A0AFBFF
:104D8000035ADAF80C20CAF810B05A44CAF80C20BA
:104D9000BBF1000F00F0BE820122DA460192C90386
:104DA0004F4401F1005909F5C019791E0A46023233
:104DB00019F801BBD21B524501F801BFF6D34FF4DD
:104DC00080414F4A4EF802109644019A1AB9B8F140
:104DD000000F3FF488AE334405EBC30502230246BF
:104DE00000212046CEF800303E4BC3F814C0EB68DB
:104DF000AB60444B03B0BDE8F04F18473B4D2B78F8
:104E0000012B00F00581022B00F05481042B00F0EF
:104E1000518105214FF40023354C2970C2F8F0313F
:104E2000EFF3108172B6BFF35F8F00200122314B88
:104E300018702C48C0F8202219B91A70BFF35F8F80
:104E400062B600230221274AC2F86011C4E9043384
:104E5000A3812B7047E60823C2F86031D2F83031C5
:104E6000DE073FF540AE214B1B78032B7FF43BAEB2
:104E700059E7254A254B26481946013309788342CC
:104E800002F8011FF8D1234B9847002800F0198140
:104E90000421144B164AC3F8601192F9001000293E
:104EA000C0F2A481D288002A00F0FF8100220124F0
:104EB000102119482C70028018480280C3F8601134
:104EC000EFF3108572B6BFF35F8F0A480270C3F824
:104ED000F011002D7FF407AE0470BFF35F8F62B650
:104EE00001E600BF00C00A40C5410800C8210720F4
:104EF0008C220720040B072000C10A4060C10A4031
:104F000020C20A40DD3C08008B2207200000182048
:104F100008001820FD110800C6210720C421072021
:104F20000124B84F8B60631E03EB430305EBC303FF
:104F3000197DE2B2C80704F101040CD56FF300013A
:104F4000197533683BB139680120C90548BF42F083
:104F50008002B1689847092C06F1180607F104078A
:104F6000E1D1A94B9847A94B1A6822F07F021A6039
:104F70001A6842F080021A60D3F8002122F4CB5262
:104F800022F01C0242F03002C3F80021D3F80021C5
:104F900042F00202C3F80021DA6942F00102DA614C
:104FA000EFF3108172B6BFF35F8F04200025984A9B
:104FB00002241570C3F8F0014FF48050C3F8F0419B
:104FC000986121B901231370BFF35F8F62B6EFF3CD
:104FD000108172B6BFF35F8F002401238B481470D9
:104FE000C0F8203219B91370BFF35F8F62B6002387
:104FF0000224884A854888491361C0F8604153619A
:1050000093810B706FE5854B03B0BDE8F04F1847F7
:10501000834FD2F830617F4C3B88B4F80CC0C6F3A4
:105020000A569A199445ACBF1FFA82FCACEB0306F2
:10503000A268B8BFB6B21A44002E00F05181794B75
:10504000184601330078D9B2B14202F8010BF7D308
:10505000402EA7F800C05FD06369A4F80CC0002BF5
:105060003AD09847002837D105204FF4002102227A
:10507000664B2870C3F8F011C3F8602133E56A4B22
:1050800003B0BDE8F04F1847684A02EB0111CA6847
:10509000D4073FF528ADC8F814C0CA68120C07D071
:1050A00003EB430305EBC305EB689A1AC5E902223B
:1050B0005F4BFCE4574C2369002B3FF4B1AE98479B
:1050C000AEE605204FF400210422504B2870C3F8AF
:1050D000F011C3F8602106E5022103224B4BC3F80F
:1050E00060112A70EFF3108472B6BFF35F8F012254
:1050F0000821002546480570C3F86021C3F8F02157
:10510000C3F86011C3F8F011002C7FF4ECAC02700E
:10511000BFF35F8F62B6E6E4464EE28833886344AD
:105120009A4299DDA389634500F0E58002211022AF
:10513000364BC3F86011C3F86021EFF3108072B6EC
:10514000BFF35F8F002432490C70C3F8F0210028B0
:105150007FF4C9AC01230B70BFF35F8F62B6C2E46A
:1051600001254FF48046344B0246344F2046344CE0
:105170004EF8035000214EF807504EF803602346C6
:1051800038E64FF480524FF400204FF4802103EBB7
:10519000430305EBC305284B4EF80320A3F5087322
:1051A000C3F814C02B7D274A6BF382032B755EF87E
:1051B000023023F400734EF80230234B4EF8030004
:1051C0004EF803108FE4EFF3108572B6BFF35F8FD4
:1051D0000F4C1E48227082780A448270002D7FF4A2
:1051E0001BAD2170BFF35F8F62B615E5002302216E
:1051F000104C0B48094A23800380297003B0BDE896
:10520000F04F104704C10A407D11080000C00A4059
:10521000040B07208C220720C8210720C13E08006C
:10522000C4210720000018206D42080000C30A4076
:10523000193D0800C621072020C20A4060C10A406B
:10524000DD3C080000C10A40F0C10A4008330720D5
:10525000EFF3108572B6BFF35F8F54485449027064
:105260008A78013A8A70002D7FF4B0AC0470BFF3E5
:105270005F8F62B6AAE403240470EFF3108472B661
:10528000BFF35F8F494803700823C2F86011C2F86A
:10529000F011C2F86031C2F8F031002C7FF423AC79
:1052A0000170BFF35F8F62B61DE403212970EFF335
:1052B000108572B6BFF35F8F012108203B4C22702E
:1052C000C3F86011C3F8F011C3F86001C3F8F0012E
:1052D000002D7FF408AC2170BFF35F8F62B602E44B
:1052E000A7F800C0B8E6BAF1000F13D0D3454DD8E7
:1052F0004FF0010841E56369002B3FF4B5AE9847D4
:1053000000283FF4B1AE0022338839883A800B443C
:1053100033800BE74FF48041264A4EF80210964442
:1053200059E5EFF3108772B6BFF35F8F01261F496F
:105330000A70204A4EF80260A2F50872C2F814C042
:105340001FB90E70BFF35F8F62B6182606FB0353BA
:105350000246DD682046184C9D600021234649E541
:105360004FF48041134A4EF8021003E44FF0180B3B
:105370004FF000080BFB035BDBF80C20CBF810A010
:105380005244CBF80C20CDF8048008E54FF0180B00
:1053900000220BFB035B0192DBF80C204FF00108AD
:1053A0005244CBF810A0CBF80C20F8E4040B0720F3
:1053B0000833072020C20A40DD3C0800054A136874
:1053C00023F4406343F400631360136843F4005311
:1053D0001360704700C00A40054A136823F4406315
:1053E00043F400631360136843F480431360704711
:1053F00000C00A40034A136823F4406343F4006387
:105400001360704700C00A4010B48FB0EC46254CC2
:105410000FCCACE80F000FCCACE80F000FCCACE821
:105420000F0094E803006B461F4A4CF8040B8CF8FD
:105430000010D169C3F1005021F00101D161D2F80F
:1054400000110DF1350C21F4CB5121F01C0141F478
:10545000895141F01001C2F80011D2F8001100F595
:10546000C01041F00201C2F80011D16941F0010100
:10547000D161116821F4406141F40061116011684B
:1054800041F4004111601A1813F8011B63451170B3
:10549000F9D14FF48042044BC3F820220FB010BC66
:1054A000704700BF1CCB080000C00A40704700BF17
:1054B0000C4B1A6822B9EFF3108129B10A490A701E
:1054C0001A6801321A60704710B472B6BFF35F8F6A
:1054D0000120064C044A217010701A6801321A60CB
:1054E00010BC7047A4220720A8220720040B072025
:1054F000074B1A68013A1A601B6843B9054B1B78C1
:105500002BB10122044B1A70BFF35F8F62B6704754
:10551000A4220720A8220720040B0720024A1378A0
:10552000013BDBB213707047BE220720204B1A7973
:1055300093F90000A2F10301B1FA81F11A78002871
:105540004FEA511102F0600203DB202A14D0002040
:105550007047202AFBD15A78212AF8D1B3F806C027
:10556000BCF1070FF3D11348C1EBC10202449A60AA
:105570000120A3F80CC070475878202805D0A0F16E
:105580002200B0FA80F040097047B3F806C0BCF1C1
:10559000070FDCD1074810B4C1EBC102064C02442E
:1055A0001C619A60A3F80CC0012010BC704700BFBA
:1055B0008C220720B0220720C55508000020704724
:1055C00000207047064B07491879074BA0F10300EC
:1055D000B0FA80F04009C0EBC0021144184700BF88
:1055E0008C220720B022072041220800F8B51E4D6A
:1055F00000222B7842F2A106022B84BF00232B70DD
:105600002C781A48E4B2012C20F81420184B14BF4F
:105610000120032004EB840123F811604FF0020CF9
:105620004FF0080E6FF03D07012603EB41031149CF
:105630009880C4EBC4000A5401445A8020461A8161
:10564000A3F806C0CA700C4B0A714A714F708E7075
:1056500081F806E098472046084B984718B12B7808
:105660003344DBB22B70F8BDBE220720D42A0720BA
:10567000F0320720B022072041220800352108001F
:1056800008B5064A06491378013BDBB2137010785F
:1056900088470022034B1A7008BD00BFBF220720B5
:1056A00069210800AC2207202DE9F04F4B4E85B050
:1056B000335C13B105B0BDE8F08FDFF824910446E8
:1056C000C847DFF820A13AF8145000284FD0464BC5
:1056D00098478542EED0EFF31083029372B6BFF382
:1056E0005F8F0023414A424913700D5DDFF804B11A
:1056F000EDB205EB44033BF81330A8466700002BDE
:1057000043D03D4B002018803C4B1B5D002B33D019
:10571000B5FA85F84FEA581801230299335519B99B
:105720001370BFF35F8F62B607EB08053BF81530C7
:10573000B3F5007F14BF0126002622D0C8470028F9
:1057400044D0294B98473BF815302AF814002C48D0
:105750002C4A012C47440090314614BF83208520F9
:10576000294C02EB4722A04705B0BDE8F08F274B3C
:1057700098478542AFD19DE7B5FA85F56D090D557E
:10578000CAE700222AF81420E1E71B4B188803938C
:1057900001301880C847039B144A10B91888632841
:1057A0000AD90393C847114A1149039B0028A9D07D
:1057B0001888B0F5487FA5D2029B002B7FF47AAF02
:1057C00001231370BFF35F8F62B673E70F4B9847E7
:1057D0003BF815302AF81400B9E700BFEC32072077
:1057E000DD420800E832072039430800040B072097
:1057F000E4320720DC320720AA220720D82A07201B
:1058000011580800DC2A07206D45080029430800CC
:1058100000B170470346A2F18500B0FA80F070B481
:10582000094A400912F800C04200BCF1000F08BF4D
:105830000132064C064E074D335424F812302B54D7
:10584000054970BC084700BFE4320720DC3207205E
:10585000D82A0720EC320720A956080010B5064CBC
:10586000064B2078984723780133DBB2012B88BFA1
:105870000023237010BD00BFA9220720A9560800ED
:105880002DE9F043044683B0EFF3108072B6BFF306
:105890005F8F0022344B3549354E1A700D5D325DF5
:1058A000002A4FD1DFF8CC90EDB202F0FF08324A67
:1058B00005EB440732F814E039F817C01FFA8EFEE2
:1058C0001FFA8CFCE6454FEA44073BD3B5FA85FC4A
:1058D0004FF0010E4FEA5C1C22F8148001F804C05E
:1058E00006F804E020B983F800E0BFF35F8F62B6EA
:1058F000EFF3108672B6BFF35F8F0020187032F896
:105900001420085D91B23A1839F8122092B226B9E3
:1059100001201870BFF35F8F62B691421FD1174804
:10592000174A012C3D4400904FF400734FF00101E1
:1059300014BF04200620134C02EB4522A04703B0FD
:10594000BDE8F08338B901221A70BFF35F8F62B6E9
:1059500003B0BDE8F083002003B0BDE8F08320462B
:10596000094B9847DBE700BF040B0720C82A072034
:10597000D02A0720C02A0720CC2A07202D5A080049
:10598000C02207206D450800A521080070B51A4EF9
:10599000002533781949022B84BF002333703478F3
:1059A000174B1848E4B240F82450174A0D551D55BE
:1059B000164B2046155523F81450154B9847154A99
:1059C000154B1555154A2046155523F8245003EB61
:1059D0008402134B558023F81450124B984730B172
:1059E00033780133DBB233703378022B00D070BDD3
:1059F00001220D4B1A7070BDBF220720EC32072028
:105A0000D82A0720DC320720E4320720E8320720BA
:105A1000A9560800D02A0720C02A0720C82A072034
:105A2000CC2A072081580800AC22072050BB10B5B3
:105A30008646A2F10600B0FA80F0134B40091B5CC9
:105A400082B0B3FA83F35B0969B1104A03EB4003F8
:105A500089B222F813100E4A0E4B02F800E002B091
:105A6000BDE8104018470C4C0C4903EB400C00916A
:105A700010464FF4007304EB4C220121084CA04760
:105A800002B010BD704700BFC82A0720C02A0720F7
:105A9000D02A072081580800C02207202D5A08006C
:105AA0006D45080030B4EFF3108472B6BFF35F8F1A
:105AB0004FF0000C0B490C4B0C4A81F800C033F836
:105AC0001030125C0A4D02EB400035F810009BB21A
:105AD00080B2C01A24B901230B70BFF35F8F62B686
